:1000000040BB012079220000FDD3040065220000DE
:10001000652200006522000065220000000000004B
:10002000000000000000000000000000AD22000001
:10003000652200000000000061240000652200002D
:10004000D9240000D9240000D9240000D9240000BC
:10005000D9240000D9240000D9240000D9240000AC
:10006000D9240000D9240000D9240000D92400009C
:10007000D9240000D9240000D9240000D92400008C
:10008000D9240000D9240000D9240000D92400007C
:10009000D9240000D9240000D9240000D92400006C
:1000A000D9240000D9240000D9240000D92400005C
:1000B000D9240000D9240000D9240000D92400004C
:1000C000D9240000D9240000D9240000D92400003C
:0800D000D9240000D92400002E
:1000E00001F0FF01102A2BDB10F0070F08D010F8E9
:1000F000013B013A8B422DD010F0070F42B3F6D1ED
:10010000F0B441EA012141EA014122F007047FF005
:1001100000070023F0E80256083C85EA010586EA5C
:10012000010685FA47F5A3FA87F586FA47F6A5FA98
:1001300087F68EB9EED1F0BC01F0FF0102F00702A4
:1001400032B110F8013B013A83EA010313B1F8D14F
:100150000020704701387047002D06BF3546033830
:10016000073815F0010F07D1013015F4807F02BF69
:10017000013015F4C03F0130F0BC0138704700BFBA
:1001800081F0004102E000BF83F0004330B54FEA48
:1001900041044FEA430594EA050F08BF90EA020FB5
:1001A0001FBF54EA000C55EA020C7FEA645C7FEA48
:1001B000655C00F0E2804FEA5454D4EB5555B8BF6B
:1001C0006D420CDD2C4480EA020281EA030382EADC
:1001D000000083EA010180EA020281EA0303362D6E
:1001E00088BF30BD11F0004F4FEA01314FF4801C41
:1001F0004CEA113102D0404261EB410113F0004F53
:100200004FEA03334CEA133302D0524263EB430309
:1002100094EA050F00F0A780A4F10104D5F1200EA7
:100220000DDB02FA0EFC22FA05F2801841F1000102
:1002300003FA0EF2801843FA05F359410EE0A5F1D6
:1002400020050EF1200E012A03FA0EFC28BF4CF007
:10025000020C43FA05F3C01851EBE37101F00045BD
:1002600007D54FF0000EDCF1000C7EEB00006EEBCA
:100270000101B1F5801F1BD3B1F5001F0CD3490854
:100280005FEA30004FEA3C0C04F101044FEA4452AB
:1002900012F5800F80F09A80BCF1004F08BF5FEA32
:1002A000500C50F1000041EB045141EA050130BD12
:1002B0005FEA4C0C404141EB0101013C28BFB1F524
:1002C000801FE9D291F0000F04BF01460020B1FA6F
:1002D00081F308BF2033A3F10B03B3F120020CDA42
:1002E0000C3208DD02F1140CC2F10C0201FA0CF020
:1002F00021FA02F10CE002F11402D8BFC2F1200C85
:1003000001FA02F120FA0CFCDCBF41EA0C0190403A
:10031000E41AA2BF01EB0451294330BD6FEA040483
:100320001F3C1CDA0C340EDC04F11404C4F120026E
:1003300020FA04F001FA02F340EA030021FA04F380
:1003400045EA030130BDC4F10C04C4F1200220FAD7
:1003500002F001FA04F340EA0300294630BD21FA15
:1003600004F0294630BD94F0000F83F4801306BFDB
:1003700081F480110134013D4EE77FEA645C18BFCF
:100380007FEA655C29D094EA050F08BF90EA020F66
:1003900005D054EA000C04BF1946104630BD91EA5E
:1003A000030F1EBF0021002030BD5FEA545C05D161
:1003B0004000494128BF41F0004130BD14F58004A0
:1003C0003CBF01F5801130BD01F0004545F0FE4114
:1003D00041F470014FF0000030BD7FEA645C1ABF49
:1003E000194610467FEA655C1CBF0B46024650EA80
:1003F000013406BF52EA033591EA030F41F40021AC
:1004000030BD00BF90F0000F04BF0021704730B531
:100410004FF4806404F132044FF000054FF0000106
:1004200050E700BF90F0000F04BF0021704730B5C7
:100430004FF4806404F1320410F0004548BF40429C
:100440004FF000013EE700BF42004FEAE2014FEAF1
:1004500031014FEA02701FBF12F07F4393F07F4FCC
:1004600081F06051704732F07F4208BF704793F0CF
:100470007F4F04BF41F40021704730B54FF46074E2
:1004800001F0004521F000411CE700BF50EA0102E5
:1004900008BF704730B54FF000050AE050EA01028E
:1004A00008BF704730B511F0004502D5404261EBFE
:1004B00041014FF4806404F132045FEA915C3FF43F
:1004C000D8AE4FF003025FEADC0C18BF03325FEADC
:1004D000DC0C18BF033202EBDC02C2F1200300FA8D
:1004E00003FC20FA02F001FA03FE40EA0E0021FAB2
:1004F00002F11444BDE600BF70B54FF0FF0C4CF4A0
:10050000E06C1CEA11541DBF1CEA135594EA0C0F51
:1005100095EA0C0F00F0DEF82C4481EA030621EA8C
:100520004C5123EA4C5350EA013518BF52EA0335C7
:1005300041F4801143F4801338D0A0FB02CE4FF079
:100540000005E1FB02E506F00042E0FB03E54FF0A9
:100550000006E1FB03569CF0000F18BF4EF0010EA1
:10056000A4F1FF04B6F5007F64F5407404D25FEA9D
:100570004E0E6D4146EB060642EAC62141EA555150
:100580004FEAC52040EA5E504FEACE2EB4F1FD0C92
:1005900088BFBCF5E06F1ED8BEF1004F08BF5FEA10
:1005A000500E50F1000041EB045170BD06F00046C2
:1005B00046EA010140EA020081EA0301B4EB5C046F
:1005C000C2BFD4EB0C0541EA045170BD41F4801167
:1005D0004FF0000E013C00F3AB8014F1360FDEBF8C
:1005E000002001F0004170BDC4F10004203C35DA68
:1005F0000C341BDC04F11404C4F1200500FA05F3EB
:1006000020FA04F001FA05F240EA020001F000428B
:1006100021F0004110EBD37021FA04F642EB060101
:100620005EEA430E08BF20EAD37070BDC4F10C042B
:10063000C4F1200500FA04F320FA05F001FA04F2EF
:1006400040EA020001F0004110EBD37041F10001DB
:100650005EEA430E08BF20EAD37070BDC4F12005E6
:1006600000FA05F24EEA020E20FA04F301FA05F24E
:1006700043EA020321FA04F001F0004121FA04F2F6
:1006800020EA020000EBD3705EEA430E08BF20EAC6
:10069000D37070BD94F0000F0FD101F00046400000
:1006A00041EB010111F4801F08BF013CF7D041EA82
:1006B000060195F0000F18BF704703F00046520086
:1006C00043EB030313F4801F08BF013DF7D043EA57
:1006D0000603704794EA0C0F0CEA135518BF95EA0D
:1006E0000C0F0CD050EA410618BF52EA4306D1D194
:1006F00081EA030101F000414FF0000070BD50EAB3
:10070000410606BF1046194652EA430619D094EA3C
:100710000C0F02D150EA013613D195EA0C0F05D126
:1007200052EA03361CBF104619460AD181EA03017A
:1007300001F0004141F0FE4141F470014FF0000032
:1007400070BD41F0FE4141F4780170BD70B54FF0CD
:10075000FF0C4CF4E06C1CEA11541DBF1CEA13554D
:1007600094EA0C0F95EA0C0F00F0A7F8A4EB05042F
:1007700081EA030E52EA03354FEA013100F0888026
:100780004FEA03334FF0805545EA131343EA1263EF
:100790004FEA022245EA111545EA10654FEA0026A4
:1007A0000EF000419D4208BF964244F1FD0404F55D
:1007B000407402D25B084FEA3202B61A65EB0305B9
:1007C0005B084FEA32024FF480104FF4002CB6EB76
:1007D000020E75EB030E22BFB61A754640EA0C00F6
:1007E0005B084FEA3202B6EB020E75EB030E22BF36
:1007F000B61A754640EA5C005B084FEA3202B6EB77
:10080000020E75EB030E22BFB61A754640EA9C0035
:100810005B084FEA3202B6EB020E75EB030E22BF05
:10082000B61A754640EADC0055EA060E18D04FEAC3
:10083000051545EA16754FEA06164FEAC30343EA63
:1008400052734FEAC2025FEA1C1CC0D111F4801F30
:100850000BD141EA00014FF000004FF0004CB6E729
:1008600011F4801F04BF01430020B4F1FD0C88BFC8
:10087000BCF5E06F3FF6AFAEB5EB030C04BFB6EBD3
:10088000020C5FEA500C50F1000041EB045170BDC6
:100890000EF0004E4EEA113114EB5C04C2BFD4EBF3
:1008A0000C0541EA045170BD41F480114FF0000E77
:1008B000013C90E645EA060E8DE60CEA135594EAF3
:1008C0000C0F08BF95EA0C0F3FF43BAF94EA0C0FF6
:1008D0000AD150EA01347FF434AF95EA0C0F7FF46B
:1008E00025AF104619462CE795EA0C0F06D152EABF
:1008F00003353FF4FDAE1046194622E750EA4106A3
:1009000018BF52EA43067FF4C5AE50EA41047FF4B3
:100910000DAF52EA43057FF4EBAE12E74A0011D265
:1009200012F5001211D20DD56FF47873B3EB625249
:100930000ED44FEAC12343F0004343EA505323FA55
:1009400002F070474FF00000704750EA013002D1CA
:100950004FF0FF3070474FF00000704780F00040CC
:1009600002E000BF81F0004142001FBF5FEA410387
:1009700092EA030F7FEA226C7FEA236C6AD04FEA87
:100980001262D2EB1363C1BFD218414048404140CC
:10099000B8BF5B42192B88BF704710F0004F40F47E
:1009A000000020F07F4018BF404211F0004F41F49A
:1009B000000121F07F4118BF494292EA030F3FD066
:1009C000A2F1010241FA03FC10EB0C00C3F1200379
:1009D00001FA03F100F0004302D5494260EB400008
:1009E000B0F5000F13D3B0F1807F06D340084FEA73
:1009F000310102F10102FE2A51D2B1F1004F40EB68
:100A0000C25008BF20F0010040EA030070474900CF
:100A100040EB0000013A28BFB0F5000FEDD2B0FA6C
:100A200080FCACF1080CB2EB0C0200FA0CF0AABF8F
:100A300000EBC25052421843BCBFD040184370472D
:100A400092F0000F81F4000106BF80F40000013233
:100A5000013BB5E74FEA41037FEA226C18BF7FEA0A
:100A6000236C21D092EA030F04D092F0000F08BF4C
:100A70000846704790EA010F1CBF0020704712F033
:100A80007F4F04D1400028BF40F00040704712F172
:100A900000723CBF00F50000704700F0004343F0D7
:100AA000FE4040F4000070477FEA226216BF08460D
:100AB0007FEA23630146420206BF5FEA412390EAD0
:100AC000010F40F4800070474FF0000304E000BFC6
:100AD00010F0004348BF40425FEA000C08BF704777
:100AE00043F0964301464FF000001CE050EA01023B
:100AF00008BF70474FF000030AE000BF50EA010250
:100B000008BF704711F0004302D5404261EB41013C
:100B10005FEA010C02BF84460146002043F0B64361
:100B200008BFA3F18053A3F50003BCFA8CF2083A86
:100B3000A3EBC25310DB01FA02FC634400FA02FC8F
:100B4000C2F12002BCF1004F20FA02F243EB020096
:100B500008BF20F00100704702F1200201FA02FCF8
:100B6000C2F1200250EA4C0021FA02F243EB0200EB
:100B700008BF20EADC7070474FF0FF0C1CEAD0522F
:100B80001EBF1CEAD15392EA0C0F93EA0C0F6FD0F0
:100B90001A4480EA010C400218BF5FEA41211ED0CE
:100BA0004FF0006343EA501043EA5111A0FB0131BA
:100BB0000CF00040B1F5000F3EBF490041EAD3718F
:100BC0005B0040EA010062F17F02FD2A1DD8B3F10B
:100BD000004F40EBC25008BF20F00100704790F07A
:100BE000000F0CF0004C08BF49024CEA502040EACC
:100BF00051207F3AC2BFD2F1FF0340EAC250704792
:100C000040F400004FF00003013A5DDC12F1190FCF
:100C1000DCBF00F000407047C2F10002410021FA41
:100C200002F1C2F1200200FA02FC5FEA310040F159
:100C3000000053EA4C0308BF20EADC70704792F0D2
:100C4000000F00F0004C02BF400010F4000F013A0A
:100C5000F9D040EA0C0093F0000F01F0004C02BF05
:100C6000490011F4000F013BF9D041EA0C018FE774
:100C70000CEAD15392EA0C0F18BF93EA0C0F0AD07A
:100C800030F0004C18BF31F0004CD8D180EA0100A0
:100C900000F00040704790F0000F17BF90F0004F39
:100CA000084691F0000F91F0004F14D092EA0C0F1B
:100CB00001D142020FD193EA0C0F03D14B0218BFAE
:100CC000084608D180EA010000F0004040F0FE40F4
:100CD00040F40000704740F0FE4040F44000704790
:100CE0004FF0FF0C1CEAD0521EBF1CEAD15392EA0F
:100CF0000C0F93EA0C0F69D0A2EB030280EA010CFF
:100D000049024FEA402037D04FF0805343EA111197
:100D100043EA10130CF000408B4238BF5B0042F1F5
:100D20007D024FF4000C8B4224BF5B1A40EA0C009A
:100D3000B3EB510F24BFA3EB510340EA5C00B3EBCC
:100D4000910F24BFA3EB910340EA9C00B3EBD10FBA
:100D500024BFA3EBD10340EADC001B0118BF5FEA0C
:100D60001C1CE0D1FD2A3FF650AF8B4240EBC25035
:100D700008BF20F0010070470CF0004C4CEA5020F6
:100D80007F32C2BFD2F1FF0340EAC250704740F445
:100D900000004FF00003013A37E792F0000F00F037
:100DA000004C02BF400010F4000F013AF9D040EAB5
:100DB0000C0093F0000F01F0004C02BF490011F449
:100DC000000F013BF9D041EA0C0195E70CEAD15341
:100DD00092EA0C0F08D142027FF47DAF93EA0C0F28
:100DE0007FF470AF084676E793EA0C0F04D14B020C
:100DF0003FF44CAF08466EE730F0004C18BF31F0BE
:100E0000004CCAD130F000427FF45CAF31F00043B7
:100E10007FF43CAF5FE700BF4FF0FF3C06E000BF50
:100E20004FF0010C02E000BF4FF0010C4DF804CD73
:100E30004FEA40024FEA41037FEA226C18BF7FEA83
:100E4000236C11D001B052EA530C18BF90EA010F85
:100E500058BFB2EB030088BFC81738BF6FEAE17014
:100E600018BF40F0010070477FEA226C02D15FEAB0
:100E7000402C05D17FEA236CE4D15FEA412CE1D01C
:100E80005DF8040B704700BF844608466146FFE7E3
:100E90000FB5FFF7C9FF002848BF10F1000F0FBDC5
:100EA0004DF808EDFFF7F4FF0CBF012000205DF8BE
:100EB00008FB00BF4DF808EDFFF7EAFF34BF012043
:100EC00000205DF808FB00BF4DF808EDFFF7E0FFDC
:100ED00094BF012000205DF808FB00BF4DF808ED2D
:100EE000FFF7D2FF94BF012000205DF808FB00BF90
:100EF0004DF808EDFFF7C8FF34BF012000205DF872
:100F000008FB00BF4FEA4002B2F1FE4F0FD34FF093
:100F10009E03B3EB12620DD94FEA002343F0004366
:100F200010F0004F23FA02F018BF404270474FF014
:100F30000000704712F1610F01D1420205D110F09B
:100F4000004008BF6FF0004070474FF0000070474E
:100F50007BB972B90029BEBF00204FF0004106E006
:100F600008BF00281CBF6FF000414FF0FF3000F0B9
:100F700077B8ADF1080C6DE904CE002909DB002B30
:100F80001ADB00F09CF8DDF804E0DDE9022304B090
:100F90007047404261EB4101002B1BDB00F08FF8F2
:100FA000DDF804E0DDE9022304B0404261EB4101D9
:100FB000524263EB43037047524263EB430300F03A
:100FC0007EF8DDF804E0DDE9022304B0404261EB85
:100FD00041017047524263EB430300F070F8DDF8C3
:100FE00004E0DDE9022304B0524263EB430370479F
:100FF00053B94AB9002908BF00281CBF4FF0FF3180
:101000004FF0FF3000F02CB8ADF1080C6DE904CEC4
:1010100000F055F8DDF804E0DDE9022304B0704784
:10102000D0B5FFF711FA0C4B002206460F46FFF72A
:1010300063FAFFF773FC0446FFF7E4F9074B00225D
:10104000FFF75AFA02460B4630463946FFF79CF83E
:10105000FFF764FC2146D0BD0000F03D0000F041E8
:10106000704700BF10F8012B11F8013B012A28BF7F
:101070009A42F7D0D01A7047034611F8012B03F8B3
:10108000012B002AF9D17047034613F8012B002ADF
:10109000FBD1181A0138704710B500210446FFF73C
:1010A00009FF20B92046BDE81040FFF7B9BF04F1A1
:1010B0000040FFF7B5FF404261EB410110BD2DE953
:1010C000F0478C468E46089E154604461946002B6E
:1010D00040F0D080724547D9B2FA82F74FB1C7F1DC
:1010E00020030EFA07FC20FA03F3BD4043EA0C0C80
:1010F000BC404FEA154EA8B2BCFBFEF8230C0EFB19
:1011000018CC08FB00F943EA0C43994528D9EB18A1
:1011100008F1FF3204D2994502D9A8F102022B440A
:10112000A3EB0903A4B2B3FBFEFC0EFB1C330CFBC8
:1011300000F044EA0344A04214D92C190CF1FF3307
:1011400004D2A04202D9ACF102032C44241A43EA8F
:1011500002401EB1FC40002334607360BDE8F0879C
:101160004246DDE76346F1E7002A79D0B2FA82F31E
:10117000002B3FD01946C1F1200302FA01F52EFAE7
:1011800003F20EFA01FE20FA03F343EA0E034FEADC
:10119000154E00FA01F4B2FBFEFCAFB20EFB1C20B0
:1011A0001A0C0CFB07F842EA004290455AD9AA18DB
:1011B0000CF1FF3004D2904502D9ACF102002A4470
:1011C000A2EB08029BB2B2FBFEFC0EFB1C220CFB46
:1011D00007F743EA02439F4246D9EB180CF1FF326E
:1011E00004D29F4202D9ACF102022B44DB1B42EA3B
:1011F000004202E0AEEB020301224FEA154EAFB20D
:10120000B3FBFEFC200C0EFB1C330CFB07F840EA82
:10121000034398452AD9EB180CF1FF3004D29845C6
:1012200002D9ACF102002B44A3EB0803A4B2B3FB38
:10123000FEFC0EFB1C330CFB07F744EA0344A742F9
:1012400016D92C190CF1FF3304D2A74202D9ACF104
:1012500002032C44E41B43EA00400F46114678E7A2
:101260001F2188E76046ABE76246BFE76046DBE7E1
:101270006346EFE7734506D916B9002108466DE7C6
:10128000C6E9000EF9E7B3FA83F787B9734501D3CE
:10129000824207D8841A6EEB030301209C461EB9D4
:1012A00000215BE73846FAE7C6E9004CF8E7C7F1EA
:1012B000200CBB4022FA0CF51D4320FA0CF12EFA4B
:1012C0000CF30EFA07FE41EA0E014FEA154900FA47
:1012D00007F4B3FBF9F81FFA85FE09FB18300B0C75
:1012E00008FB0EFA43EA00439A4502FA07F240D996
:1012F000EB1808F1FF3004D29A4502D9A8F1020098
:101300002B44A3EB0A0389B2B3FBF9F809FB1833AA
:1013100008FB0EFE41EA03418E452CD9691808F1FD
:10132000FF3304D28E4502D9A8F10203294443EACF
:101330000040A0FB0298A1EB0E014145CE4643467A
:1013400002D306D14C4504D2B9EB020E68EB05037B
:101350000138002EA4D0B4EB0E0261EB030101FAB8
:101360000CFC22FA07F34CEA0303F940C6E900310A
:1013700096E74046C5E74346D9E700000000000075
:101380002DE9F041022A86B0054605D04FF0FF3620
:10139000304606B0BDE8F0810029F7D00C88E3079D
:1013A000F4D5204663F002FBC4F3C3239842EDD189
:1013B00000231A4644FA02F101F0010101320B4404
:1013C0000F2ADBB2F6D103F00103B3EBD43FDDD13A
:1013D000C4F3C70403222146284630F00BFF06461B
:1013E0000028D3D1284631F057FFD0F83480074683
:1013F000B8F1000F1CD01422314601A86FF06AF931
:1014000001AA21463846C04790B9039A0BA1D1E9F9
:1014100000013346FFF7ECFD00F5CB5204323223D6
:101420000C21B2FBF3F2284692B264F075F9AFE7F3
:10143000014AF4E7AFF30080E09304000068E36B37
:1014400002000000014601484BF0FBBE37220700B6
:1014500070B581789CB0002940F0A580A349A448CC
:10146000A44CA54D43F239024BF0EBFEA34A43F2E4
:10147000390111206CF080FD021EB4BFA048A148C4
:101480009A494BF0DEFE94F900006CF077FC0322E1
:10149000012194F900006CF030FD944902469A480D
:1014A0004BF0CFFE95E807000EAB83E80700184627
:1014B0006CF007FD0C3502468C4994484BF0C1FE98
:1014C00095E8070011AB83E8070018466CF0FBFCB9
:1014D000864902468E484BF0B4FE05F0C1FD8349B3
:1014E000054602468B484BF0ACFE2B468A4A94F9DF
:1014F000000003215CF05EFC7C4942B287484BF05F
:10150000A0FE1A230222032194F900005CF09BFC48
:10151000764942B282484BF094FE1C22002115A865
:101520006FF0D8F8012614A994F9000014965CF025
:10153000C9FC6E4942B27B484BF083FE00231A4639
:10154000194694F900005CF0FCFC002542B26749A2
:1015500075484BF076FE00952B462A46294694F9AD
:1015600000005CF02FFD614942B270484BF069FE0B
:101570002B462A46294694F900006CF019FC94F990
:1015800000006CF0D6FB5949024669484BF059FE01
:10159000684A4FF4FA6392F900206621304645F01C
:1015A00071F81CB070BD01297ED1047B4F4962489F
:1015B0000A2C96BF614B624A53F824204BF041FE3F
:1015C000082C68D8DFE804F005675B4B676767673E
:1015D0004B0046495B484BF034FE464B434993F978
:1015E000004059480023224611934BF02AFE14AACA
:1015F00011A920466CF050FB0028D2D19DF85F3035
:101600000C939DF85E300B939DF85D300A939DF826
:101610005C3009939DF85B3008939DF85A3007932E
:101620009DF8593006939DF8583005939DF8573032
:1016300004939DF8563003939DF8553002939DF81E
:10164000543001939DF8533000939DF851209DF83C
:1016500052309DF850103D484BF0F3FDC7E7234949
:101660003B484BF0EEFD334A92F9002040F6B83388
:10167000672102201CB0BDE8704045F003B81B494B
:1016800034484BF0DEFD1B4B93F900001CB0BDE865
:1016900070406CF04EBB042C83D114492E481CB012
:1016A000BDE870404BF0CDBD672910D10F492B48E4
:1016B0004BF0C7FD0F4B93F900006CF05FFB1D4A28
:1016C0004FF4FA7392F9002068210320D2E76829C9
:1016D00002D106492248D4E766297FF462AF154A51
:1016E0004FF4FA6392F900200120C3E79A1F070024
:1016F000A61F07003E0C0020200E0700A7CC040008
:10170000DB1F0700062007003220070077200700B4
:10171000A6200700CF200700EC200700FB200700D1
:101720001D2107004B21070074210700B421070089
:10173000F62107003F0C002015220700BC0E070011
:10174000921F07003B220700612207008C2207003E
:10175000D922070011230700472307007123070040
:10176000A723070008B5194919484BF06AFD42F054
:10177000BFFF184843F002F85F2042F0F9FF002352
:101780001A464FF48031144843F098FA44F0A0FC14
:1017900005F06AFC114B00280146187010DB104858
:1017A0004BF04FFD0F48002144F012FC0E4B187017
:1017B00005F01AF900214FF400406EF032FBF9E712
:1017C0000A484BF03EFD4FF0FF3008BD9A1F07005E
:1017D000DB23070045140000281000203E0C0020E9
:1017E00055240700511400003F0C00201924070065
:1017F000014B1B68184700BF48030020014B1860CD
:10180000704700BF4803002030B5044685B00D4640
:101810001022002168466EF05DFF02238DF8023031
:101820002A46044B0193214668464AF00DFF05B055
:1018300030BD00BFF117000080B505460E461746C3
:10184000984649F003FA034600F06CFEDFF8189062
:10185000044649F80030424630463946A84754F815
:10186000090000F0E7FD00BF0800000008B54FF0D8
:101870008053D3F8E8311B689847082805D1044BFA
:101880000122DA6203F50053DB6A002008BD00BFC5
:101890000000094038B504466DF09CFB002181F33F
:1018A0001188BFF36F8F032C24D002D8022C08D0EC
:1018B00038BD043C022CFBD8BDE83840084645F052
:1018C000F7BD45F01FFB4FF080550446D5F8D831E1
:1018D0000B489B68984704280346F7D014F0100083
:1018E00000D103B9012045F061F8064B0122DA620C
:1018F000DB6ADDE7BDE83840012045F00FBE00BFE0
:101900000040034000200940014B03600020704765
:10191000FC0E0700F8B50546EFF31186202383F38C
:101920001288BFF36F8F0C4B0C4F1C6824B986F3E1
:101930001188BFF36F8FF8BDD4E90123002D18BFC4
:1019400013462BB13A68217B107819B1517898472A
:101950002468EBE79847FBE7201901201C190120B8
:1019600010B50E4BBFF35B8F53E8002F22F001013F
:1019700043E800100028F7D1BFF35B8FD3070CD5E5
:10198000074C2368187859784BF00CFD0020FFF7BE
:10199000C1FF4EF0DDF90023236010BD281901209E
:1019A0001C190120F8B5054600F080F9324E18B92F
:1019B00033680BB90020F8BD00F078F8691C0446C4
:1019C00004D0621C50D0AC42A8BF2C46EFF3118764
:1019D000202383F31288BFF36F8F3068274D0028D0
:1019E00044D000232860336087F31188BFF36F8FE2
:1019F0002B68002BDED022499868224A0E464FF40D
:101A000000470021E0FB076100233046FFF7F0FAB2
:101A100068B1631C0BD0201A4FEAE47363EB010337
:101A2000002B4FF00101B8BF002004F09BFE49F0ED
:101A300049F80120FFF76EFFBFF35B8F124B53E8AD
:101A4000001F41F0010143E80012002AF7D1BFF363
:101A50005B8F2B6818785978FFF71CFFFFF780FF22
:101A600049F044F80120A6E72C46AFE7214600F0F4
:101A700037F92860B8E700BF181901201C190120A8
:101A800020A1070040420F002819012001289FBF14
:101A9000044B53F820300B60034B94BF185C0020BC
:101AA000704700BFFC0E070069C3070070B5EFF375
:101AB0001186202383F31288BFF36F8F0A4B1B68B4
:101AC0007BB1D3E902456EF077FA201A65EB01018C
:101AD000002901DA0020014686F31188BFF36F8FD9
:101AE00070BD4FF0FF30F6E72C19012010B5EFF371
:101AF0001184202383F31288BFF36F8F416041B9B3
:101B0000014609484BF052FC84F31188BFF36F8FF4
:101B100010BD00230360044B5A6812B9C3E90000EA
:101B2000F2E710605860EFE730190120054A1368AA
:101B3000EF2896BF23F0020343F0030343F00103B1
:101B4000136070475003002008B503490348FFF7AE
:101B5000CDFF002008BD00BF2D1B0000381901205B
:101B6000022810B51AD10139C9B2FD290FD9EFF3F6
:101B70001184202383F31288BFF36F8F1448036806
:101B800033B10133036084F31188BFF36F8F10BD4D
:101B900010490A6822F001020A60F2E70328F6D130
:101BA0000139C9B2FD29F2D9EFF31184202383F35F
:101BB0001288BFF36F8F0648436813B10133436047
:101BC000E1E704490A6822F002020A60F6E700BF72
:101BD000441901204C03002002281AD10139C9B24E
:101BE000FD292ED9EFF31181202383F31288BFF34F
:101BF0006F8F144A1368013B136023B181F311887E
:101C0000BFF36F8F7047104A136843F001031360EE
:101C1000F4E7032815D10139C9B2FD2911D9EFF331
:101C20001181202383F31288BFF36F8F054A536815
:101C3000013B5360002BE1D1034A136843F00203D8
:101C4000E5E77047441901204C03002008B502461F
:101C500013484BF0C4FB0346F8B9022A05D10139F9
:101C6000C9B2FD2917D8184608BD032AFBD101398E
:101C7000C9B2FD29F7D901220A4800EB82004BF0D6
:101C8000AEFB28B908484BF0AAFBD04000F0010396
:101C900003F00103E7E70246EEE70023E3E700BFB6
:101CA00040190120441901205003002008B50948BB
:101CB0004BF095FB58B908484BF091FB0346074899
:101CC0004BF08DFB1840003818BF012008BD0020E4
:101CD000FCE700BF401901204C0300205003002006
:101CE0002DE9F74F0F4601A9FFF7D0FE00248046EB
:101CF00026464FF00C0BA04503D8304603B0BDE894
:101D0000F08FDDF804A00BFB04F90AEB0905D5E917
:101D10000103C0180DD0DFF830C00C4A4FF4004E5C
:101D20000021E0FB0EC100236046FFF761F9874206
:101D3000E3D369781AF80900FFF788FF0134002817
:101D400018BF2E46D7E700BF3F420F0040420F00AA
:101D500038B50C4615464BF048FB034B43F8305062
:101D600003EBC0035C6038BD700C002008B503486D
:101D7000034A0021121A4BF039FB08BD281000203D
:101D8000187701200748084A084908B5121A4BF08D
:101D90002FFB0748074A0849BDE80840121A4BF0D4
:101DA00027BB00BF000000202410002034C807001B
:101DB000000000200000002034C8070038B50546A8
:101DC0000C4699B1D1E901230F4809684BF039FA63
:101DD000D4E90423E1680D484BF033FAE1690C487B
:101DE0004BF02FFAA1690B484BF02BFA012D05D1CE
:101DF000EFF30581084810394BF023FA21462846B5
:101E0000BDE8384047F0C0BEA9250700D925070026
:101E100009260700192607004826070030BFFFF7EC
:101E2000FDBF00BF2DE9F0410B4EDFF8308006EB1F
:101E30000807CC1B05463246094920466EF023FCB4
:101E4000A01942460021083C6EF044FC6C6707F183
:101E50000800BDE8F08100BF00000000080000009D
:101E6000200E07002DE9F843324D8046324889465E
:101E700017464BF0E6F9AB6ADE0622D52F484BF049
:101E8000E0F91124AB6A1D0703D52D484BF0D9F9B1
:101E90001224284DAB6A980715D52A484BF0D1F982
:101EA0006E6BAB6A190642D5274831464BF0C9F92B
:101EB000B9F1000F03D0AB6A23F08003AB621324A7
:101EC00003E01024DEE76FF015061A4DAB6ADA075F
:101ED00003D51E484BF0B5F91424AB6A9B0603D515
:101EE0001B484BF0AEF91524124B9A6AD50602D462
:101EF0009A6A90070AD55B68190507D541463046AE
:101F000000F04EFA10B180F309880224094B9A6A56
:101F1000920642BF5A6A22F400525A629A6A42F00A
:101F2000FF029A6200233B702046BDE8F8836FF001
:101F30001506C4E700ED00E05C26070073260700E5
:101F4000A7260700BB260700D4260700EB260700BC
:101F50000B27070010B51D4C1D484BF072F9A36A02
:101F6000990130D51B484BF06CF91E20A36ADA01A9
:101F700003D519484BF065F91F20144CA36A1B03C5
:101F800003D516484BF05DF92120A36A590303D508
:101F900013484BF056F922200C4CA36A9A0303D540
:101FA00010484BF04EF92320A36ADB0303D50E48FB
:101FB0004BF047F92420054A936A6FEA03436FEA1E
:101FC0001343936210BD1D20D0E700BF00ED00E079
:101FD0003B270700542707006827070083270700CF
:101FE000A2270700C8270700E327070070B5244C85
:101FF000064624480D464BF024F9A36AD90435D58A
:1020000021484BF01EF91720A36A1A0503D51F4873
:102010004BF017F918201A4CA36A9B050FD51C48E2
:102020004BF00FF9A16BA36A180407D519484BF0C0
:1020300008F91EB1A36A23F40043A3621920104CCF
:10204000A36A590503D514484BF0FBF81A20A36A7C
:10205000DA050DD511484BF0F4F81B20084A936AB5
:1020600043F47F43936200232B7070BD1620CBE7AF
:10207000A36A9B04F2D50A484BF0E3F81C20EDE775
:1020800000ED00E00F28070026280700A72607001C
:10209000382807005228070068280700842807000E
:1020A0000B2707002DE9F0415D4B5F688AB00446BD
:1020B000C7F30806002585F31188BFF36F8F02F080
:1020C0007F43B3F17F4F06D102F00C03082B13D1ED
:1020D00054484BF0B6F800252C464FF00008F31E8C
:1020E0008DF80780092B00F28C80DFE803F00A806E
:1020F000847C8A8A8A8A8A8810074CBF0C4601250C
:10210000EBE74948464E4BF09CF88DF80780F36AA0
:102110009A0704D545484BF094F800232AE0F36A67
:10212000002B01DA4248F6E7F36A5B00F5D5414837
:102130004BF087F87369A26943F480737361BFF34E
:102140004F8FBFF36F8F32F8023C726922F48072B6
:102150007261BFF34F8FBFF36F8F03F47F42B2F50D
:102160005F4F27D1DBB2022B24D1216832484BF0DC
:1021700068F823689DF80720CAB902AE04F1200769
:1021800020686168324603C20834BC421646F7D163
:10219000099A002D41D0C2F3080121B96FEA5222F9
:1021A0006FEA4222099202A91846FFF707FE0AB019
:1021B000BDE8F0811A4B9A6AD2B232B10DF1070232
:1021C00001212046FFF74EFE0FE09A6A12F47F4F7E
:1021D00005D00DF107010120FFF708FF05E09B6A1C
:1021E000B3F5803F99D3FFF7B5FE0346C2E70DF183
:1021F00007020021E5E70DF107010020ECE70F4899
:1022000089E70F4B0F49104817F4F87FA6F1100229
:1022100008BF19464BF015F87FE76FF30802C1E7D6
:1022200000ED00E0CB280700F72807000F29070082
:102230003129070040290700602907007D29070090
:102240009D280700B2280700A2290700044B5A69FD
:1022500042F010025A615A6922F008025A6170472E
:1022600000ED00E0EFF30880EFF3098101B572465D
:10227000FFF718FF01BD00BF0A4880F3088820203F
:1022800080F3118808484FF40461401880F30988EE
:10229000EFF314800221084380F31488BFF36F8F9B
:1022A00000F046F840BB012080A901201EF0040F79
:1022B0000CBFEFF30880EFF30980816911F8021C6D
:1022C0000229FFD001B572464BF094F801BD00BF62
:1022D0000028ACBF00F16040064B4FEA4111ACBF93
:1022E00000F5614000F00F00C9B2B4BF195480F886
:1022F0000013704714ED00E040B2002807DB044AE9
:102300004109012300F01F00834042F8213070474B
:1023100000E100E0044B054A23F07F039360BFF324
:102320004F8FBFF36F8F70470000000000ED00E09B
:1023300008B5FFF7EFFF0B4AD2F8883023F470039B
:10234000C2F88830EFF3148323F0040383F3148876
:10235000BFF36F8FFFF70AFDFFF714FD00F0B0F831
:1023600047F0E8FC00ED00E042F8203C009B42F81A
:102370001C3C0A49019B42F8183C029B42F8143C61
:1023800021F001014FF0807342F8043C42F8081C30
:102390000023203A02658367704700BF39180000A8
:1023A000094A0346906870B113F1160F406E05D0CC
:1023B000A0F14002934205D3834203D2814228BF59
:1023C0000020704700207047D430012008B5154622
:1023D0000B4A0C4B9060426F1A600E4600F0B4F846
:1023E0002C4686F309880020034B9847204600219D
:1023F00000220023014C20473BD404003918000080
:10240000D43001204C190120014B10221A61704771
:1024100000ED00E0054B9A699B689A421FBF044A91
:10242000536843F080535360704700BFD43001209D
:1024300000ED00E0084B9B6883420BD1EFF305836E
:1024400043B1064B5A6842F080525A605A6A22F4ED
:1024500000425A6248F000BCD430012000ED00E098
:1024600014498A684FF030001044EFF3098C80E87B
:10247000F01F202080F31288BFF36F8F0E4F4FF0B4
:1024800000668A698A603E60506F0C4C2060906FD5
:102490000023936780F3118804B5104600F054F8C8
:1024A000BDE8044002F1300090E8F01F8CF3098889
:1024B00070470000D430012004ED00E04C190120E9
:1024C000044800232021C2180133262B82F8001370
:1024D000F9D1704700E100E010B5EFF3118420233B
:1024E00083F31288BFF36F8F0C4B5A691AB1002225
:1024F0005A61FFF735FA84F31188BFF36F8FEFF35A
:102500000583074A103B02EBC30152F833004968C8
:102510008847BDE81040FFF77DBF00BFD4300120E1
:10252000700C002001480068704700004C19012021
:10253000024B034A0348012100F076B80040022014
:10254000000000201C0F0700436E054A403B13604B
:10255000044B4021C2E901131046012100F06EB87E
:102560005019012000000B15084AC2F898000B68AA
:1025700023F01F03034343F01003C2F89C308B6821
:1025800043F00103C2F8A030704700BF00ED00E047
:102590002DE9F043DFF8608085B00E461F46044603
:1025A0004FF00009B14523DA6068D8B13FB1411E50
:1025B00008421BD11F2819D92368194216D1236854
:1025C00001934AF04EFFA36803430393D8F8905059
:1025D000C5F30725D0B2013DA84207D801A9FFF7EE
:1025E000C3FF421C09F101090C34DBE76FF015024F
:1025F000104605B0BDE8F08300ED00E0044B052275
:10260000C3F89420BFF34F8FBFF36F8F704700BFA5
:1026100000ED00E0BFF35F8F024B0022C3F894206F
:10262000704700BF00ED00E010B5034C0123227895
:10263000FFF7AEFF207010BD1054012008B50B4A03
:1026400000231278FFF7A4FF10F1160F07D0084AF5
:102650000021D2F89030C3F30723984200DB08BD75
:10266000C2F89800C2F8A0100130F2E7105401201F
:1026700000ED00E02DE9F0435A4B5B4DD3F890306C
:102680002C68C3F307239C4285B000F2A780FFF7B4
:10269000C1FF00200C2684421AD1544EDFF8449129
:1026A00034706846FFF730F9514C524D8046002790
:1026B000B84514D133784B490020D1F89020C2F3AB
:1026C00007229342C0F28480FFF798FF002045E084
:1026D000696806FB0011FFF747FF0130DBE7009850
:1026E00000EB07114FEA071CCB682340B3F5000F3E
:1026F0004DD00AD8B3F5001F33D0B3F5800F3BD0CF
:10270000B3F5801F13D00137D2E7B3F1007F47D074
:10271000B3F1805F4DD0B3F1807FF4D150F80C302D
:1027200088684A684AF09DFE40F0887009E050F8D9
:102730000C3088684A684AF094FE40F0885040F4B3
:102740003020CDE901230390D9F890303078C3F3DD
:102750000723013B984234D96FF0150005B0BDE85E
:10276000F08350F80C3088684A684AF07AFE40F0EE
:10277000885040F40020E4E750F80C3088684A683C
:102780004AF06FFE40F0C06040F40030D9E750F8E6
:102790000C3088684A684AF064FE40F08270D0E7E6
:1027A00050F80C3088684A684AF05BFE40F480209C
:1027B000C7E750F80C3088684A684AF052FE284350
:1027C000BFE701A9FFF7D0FE3378013333709AE7F2
:1027D000C1F89830C1F8A00001336EE74FF0FF3028
:1027E000BCE700BF00ED00E0280F070010540120F7
:1027F0000000F0FF0000021108B5024849F08EFE0B
:10280000FEE700BFC529070008B5024B1B689847C3
:10281000002008BD6C190120034B044A186093780E
:1028200043F00203937070476C1901205403002099
:1028300008B50649064821F00701C1F1005202F52A
:1028400010324AF0BBFC002008BD00BF17D60120A3
:102850007019012003484FF0FF324FF0FF3347F06B
:102860000DBC00BF64030020014847F079BC00BFE5
:102870006403002038B50546FFF7ECFF08482A46F8
:1028800008214AF0F2FB044628B925B1FFF74AFEB9
:10289000044B0C221A50FFF7E7FF204638BD00BF5B
:1028A000701901200C00000038B504460D46FFF7F2
:1028B000D1FF214608482B4608224AF047FC04462F
:1028C00028B925B1FFF72EFE044B0C221A50FFF752
:1028D000CBFF204638BD00BF701901200C0000005E
:1028E00010B50446FFF7B6FF214603484AF02AFB1D
:1028F000BDE81040FFF7B8BF7019012070B5A0FB0C
:10290000015434B92846FFF7B5FF064640B93046B2
:1029100070BDFFF707FE054B0C221A500026F6E7A4
:102920002A4621466DF0D6FEF1E700BF0C000000FC
:1029300070B54169867A0B4D044659B1437ADB077D
:1029400006D42C2303FB06535B6A1B689B689847DD
:10295000002363612C20214600FB0650BDE8704037
:102960006DF0ECB8280F0020827A064B2C2101FB79
:1029700002339A6A1B7F1B33801A23F00303B0FBD8
:10298000F3F07047280F002038B5074B827A2C24CB
:1029900004FB02335B6AD3E901240C601568FFF77E
:1029A000E3FF04FB005038BD280F00202DE9F04361
:1029B00085B005466846039190461C466DF0FEFAC8
:1029C000DDE90067EFF31189202383F31288BFF359
:1029D0006F8F6B8B002B41D02A8B9A4225D9002216
:1029E0000023284647F00CFC0446F0B189F3118817
:1029F000BFF36F8F039B002B41D032463B466846A6
:102A00006DF001FBA27A264B2C2101FB02332046FC
:102A10005B6A1B6803A91D68DDE90023A8476061A4
:102A200070BB2046FFF784FF24E0698B4B1E6B834D
:102A300089F31188BFF36F8F2B7F2A8BAC6A1B330E
:102A400023F00303521A02FB0344154B154AEB1AF9
:102A50009B105343A3722B7FE372CBE789F311885A
:102A6000BFF36F8F23464246284647F0C9FB044612
:102A70000028BFD10024204605B0BDE8F083636183
:102A8000012300252381039B6382E27A6560294646
:102A900004F118006DF01EFE63692582E360EAE729
:102AA000280F0020A38B2EBA70B50D4C2C2500B931
:102AB00070BD037A4668002BFAD0013BDBB203728B
:102AC000002BF5D1C3604360837A05FB03431B6A87
:102AD00013B198473046EAE7FFF72AFFFAE700BF4D
:102AE000280F00200A2800B508D9FFF71BFD094B65
:102AF00009221A504FF0FF305DF804FB3023584391
:102B0000054BBFF35B8F1B58BFF35B8F002BECD0E3
:102B10000020F1E70C0000008419012030B53023BB
:102B20001049434308330B44BFF35B8F1A68BFF36C
:102B30005B8FB2B1BFF35B8F541E53E8005F9542C9
:102B400004D143E8004CBCF1000FF6D1BFF35B8F1A
:102B5000EAD1012A05D1302358430A1800230B502B
:102B6000536030BD7C19012038B504461546FFF787
:102B7000B9FF01300DD0084A30236343D0184068B4
:102B8000086015B10C3313442B6030235C4310599B
:102B900038BD0020FCE700BF7C19012070B54FF064
:102BA000FF331D484FF0FF324AF0D4FC1B4B002589
:102BB000BFF35B8F1A68BFF35B8F82B101350B2DBA
:102BC00003F13003F4D1FFF7ADFC154B17221A5077
:102BD0004FF0FF3510484AF0BFFC284670BD302446
:102BE0006C43BFF35B8F53E8000F013043E80001F3
:102BF0000029F8D1BFF35B8F0A4E331932515A6066
:102C00009A6204F10C0030446CF0BFFE04F1200025
:102C100030446DF048F8DDE7340E002084190120BF
:102C20000C0000007C1901202DE9F04116463024EB
:102C30000F4A4443101911514660C362B6B1F3689C
:102C4000A3B1FFF76FFC0B4F0C3450F8078013193A
:102C5000054640F2051230464AF06DFCB8F15F0FB0
:102C600004D0EB595F2B08BF45F80780BDE8F08121
:102C70007C1901200C0000002DE9F0410546FFF70A
:102C800031FF431C044621D03026DFF84C806E43D0
:102C900006F10C0747444FF0FF324FF0FF33384640
:102CA0004AF058FC08EB06035A68946844B1DB6AA2
:102CB00058F8060013F4404F0BD02946A0470446AD
:102CC00038464AF049FC2846FFF728FF2046BDE871
:102CD000F081A047F3E700BF7C19012010B50B4835
:102CE00000214AF03DFC0A4800214AF048FC084B0C
:102CF00000211C4603F108004AF041FC04F11000D9
:102D000000214AF03CFC002010BD00BF740F0700FA
:102D10005C0F070070B50C4606460021204815469A
:102D20004AF02DFC1F4800214AF029FC00211E48D2
:102D30004AF025FC14F0010116D0304646F0B8FCEC
:102D40002B88B3F5C15F4FEAD07007D043F6070276
:102D500093420ED040F60202934217D1EB7B03F070
:102D60007F039BB140B10421BDE870400F484AF099
:102D7000F7BB95F82430F2E70C4803214AF0F0FB4A
:102D800009480121BDE870404AF0F9BB08B10221B1
:102D9000EAE7064801214AF0E3FB01480121F1E797
:102DA0005C0F0700640F07006C0F0700740F07002B
:102DB000F7B506460D461446124F38466CF036FD00
:102DC000E0B1BB68AAB21B68314638469847002874
:102DD00002DB002003B0F0BD002CFBD1AC42F8D2E6
:102DE0002F1B042F28BF04274CF0B3FF3A46019055
:102DF00001A930196DF047FC3C44EFE76FF0120079
:102E0000E8E700BFF00C07002DE9F041144CDFF8B3
:102E1000548005460E461746444508D3FFF782FB0B
:102E2000114B6A221A504FF0FF30BDE8F081236841
:102E3000AB4200D08BB9A3683A4631462846984742
:102E400058B1FFF76FFB084B0022C2503146E368D0
:102E50003A462846BDE8F04118471034DCE700BF89
:102E6000000E0700200E07000C00000073B50D4691
:102E70001646694601AAFFF777FE0446B0B1009BEB
:102E80005B69DBB101984FF0FF324FF0FF334AF03E
:102E90008EFB009B20465B693246294698470446D4
:102EA00001984AF086FB204602B070BD0923FFF767
:102EB00039FB034A4FF0FF341350F4E75F23F6E782
:102EC0000C0000002DE9FF410D46164602A903AA99
:102ED0001F46FFF749FE0446E8B1029B5B6A13B345
:102EE00003984FF0FF324FF0FF334AF060FB0B9B2B
:102EF00001930A9B0093029B2046D3F8248032461C
:102F00003B462946C047044603984AF052FB2046F8
:102F100004B0BDE8F0810923FFF704FB034A4FF03A
:102F2000FF341350F3E75F23F6E700BF0C00000007
:102F30002DE9FF410D46164602A903AA1F46FFF7D9
:102F400013FE0446E8B1029B9B6A13B303984FF04B
:102F5000FF324FF0FF334AF02AFB0B9B01930A9B91
:102F60000093029B2046D3F8288032463B462946F0
:102F7000C047044603984AF01CFB204604B0BDE855
:102F8000F0810923FFF7CEFA034A4FF0FF341350C4
:102F9000F3E75F23F6E700BF0C000000F7B5074634
:102FA0000E461446FFF7FAFD051E18DB3CB97B1EE2
:102FB000012B04D8022E17D0012E08BF0624F1B22F
:102FC00001ABA2B2B8B201F0F1FF061E0EDA28463C
:102FD0004AF0C4FAFFF7A6FA104B76421E504FF0A3
:102FE000FF35284603B0F0BD1124E8E7019800231F
:102FF0004360C36670306CF059FD019888306CF006
:1030000052FE062C02D101984BF015FF044A01999B
:103010004FF440432846FFF707FEE2E70C000000AC
:103020006410070000B5FFF77DFA034B16221A5013
:103030004FF0FF305DF804FB0C0000002DE9F74372
:10304000DDE90A980C4658EA09010C9E07464D46F0
:1030500013D014F1690F02D014F10B0F0DD1684693
:103060006CF0D1FFDDE9002313430ED114F1690F99
:1030700014BF6FF068046FF00B04FFF753FA214B95
:1030800064421C504FF0FF3031E0B8F1FF3F08BF01
:10309000B9F1FF3F0DD04FF47A71A5FB013201FB6E
:1030A0000822DB0B43EA424332689A4294BF326003
:1030B0003360D7F8900008B147F052F835684FF404
:1030C000004C40F2E73000214FF47A720023E5FB18
:1030D0000C01FDF78DFF6CF0A4FE33685B00642BE0
:1030E00028BF64233360D7F8900018B9002003B0DC
:1030F000BDE8F0834FF0FF324FF0FF3346F0BEFFE4
:10310000F4E700BF0C00000038B540F20314A14200
:1031100003465BD0B1F5827F0ED2042922D0B1F5EF
:10312000817F2AD0032917D0FFF7FCF9474B5F2294
:103130001A504FF0FF3014E045F21B44A14274D006
:1031400045F2214081426BD040F205108142EBD123
:103150001268C3F890200EE090F86C00C0F34000B5
:10316000800338BD1268C16E50044CBF41F00201AB
:1031700021F00201D9660020F3E710688188C907B1
:103180001AD5516892680C68A2425BD003F17002B4
:1031900022610A68547B042565F3050454730C68A6
:1031A000A27B22F02002A2730C68E26822F4FE12D5
:1031B000E2600A6814320A608288520703D4DB6E28
:1031C00013F0050FD7D06FF07700CAE71168888831
:1031D000C5070FD552681068C06810F4EE1F02D101
:1031E000D86EC40703D5C88840F00100C8801068B5
:1031F000143010608A88500742BFCA8842F0040227
:10320000CA80DA6E520742BFCA8842F00802CA80FA
:10321000DB6EDB07AFD5CB8843F01003CB80AAE78A
:10322000DA6E42F00202DA66A5E700231468194656
:103230001A464AF00AFA6FF00043984294BF2060A1
:10324000236098E76FF00B008BE700BF0C000000D5
:1032500037B5002B069C05461CD10093144900226B
:10326000002301F04DFF05F170006CF01FFC05F12B
:1032700088006CF018FD04F1700029466CF053FCD6
:1032800028464BF0D8FD04F1880003B0BDE830407B
:103290004AF0B6B90ADA5B426360E36E43F00403B6
:1032A000E36604F170006CF00DFCECE703B030BD98
:1032B00045D7040013B5B0F89630C3F34103032B90
:1032C0004FF00001044600914FF000024FF0000360
:1032D00019D14BF08DFE04236360E36E43F00403C9
:1032E000E36620464AF08EF9204601F0E5FE031E13
:1032F00006DAFFF717F9054A5B4213504FF0FF3328
:10330000184602B010BD01F0FBFEE4E70C0000001F
:1033100037B505460C4619BBB0F896300091C3F39B
:103320004103032B4FF000024FF000030DD14BF08F
:103330005FFE031E0CDAFFF7F5F80E4A5B421350EE
:103340004FF0FF34204603B030BD01F0D9FEF0E766
:10335000EB6E43F00103EB6628464AF053F9F1E7C0
:10336000FFF7E0F84C1E012C024B94BF8622162278
:103370001A50E5E70C00000013B504464BF09CFD25
:10338000031E07DAFFF7CEF80D4A5B4213504FF0E9
:10339000FF3007E0B4F89630C3F38113023B012BF2
:1033A00002D9002002B010BD6368009305490023D4
:1033B0000022204601F0A4FE031EF2DAE2E700BF7D
:1033C0000C00000045D704002DE9F043B0F896301A
:1033D0009146C3F38112032A85B00446884607D17B
:1033E000FFF7A0F82E4B5F221A504FF0FF3038E065
:1033F000C3F34103022B33D0012BC56E09D1FFF774
:1034000091F815F0040F264B01D06268ECE77822A2
:10341000EAE715F0020518BF224D436819BF0026E0
:1034200000274FF4C0360027012A1DD100931E4902
:103430000022002301F064FE002805DA4342FFF772
:1034400071F8174A1350D0E763680293CDE900671B
:103450002B464A46414620464BF098FD0028EDDBBE
:10346000002005B0BDE8F0830293CDE900672B464C
:103470004A464BF08BFD031E03DAFFF753F85B421D
:10348000DFE7E36EDB07EBD46368009306490023B4
:103490000022204601F034FE031EE1DAEDE700BF12
:1034A0000C000000D7D7040045D7040013B5B0F8CE
:1034B000963003F0C003C02B044608D1FFF732F862
:1034C0000D4B5F221A504FF0FF3002B010BD4BF091
:1034D00046FD031E05DAFFF725F8074A5B42135045
:1034E000F1E7002305490094002220464BF080FDBF
:1034F000031EF0DB0020E8E70C0000005132000062
:103500002DE9F04F8FB016460A224FF0FF384FF0EA
:10351000FF390B925A06CDE90C89189F04460D46D7
:1035200003D4C36E13F0020328D000220023CDE998
:103530000C2308A86CF042FDDDE90C2308A8DDE9A6
:1035400008896CF03BFDDDE90823CDE90623E36E35
:10355000DB071BD46368009329490023002220461F
:1035600001F0CEFD031E11DAFEF7DCFF254A5B42B7
:1035700013504FF0FF300FB0BDE8F08F0CAA0521BB
:1035800001F092FE4FF4A0220023D2E74FF0000A90
:103590000DF12C0BDDE90C23616837B3CDE9022373
:1035A000199B04910093CDF804A03B46324629466E
:1035B00020464BF0A6FD0028DDDADDE90C230146AC
:1035C000CDE90023CDF808B042464B462046FFF730
:1035D00035FD0130CDD0DDE9062308A86CF013FDE0
:1035E000DDE90823CDE90C23D4E7CDE900230291DE
:1035F0003B463246294620464BF025FDDBE700BF1F
:1036000045D704000C000000F7B5B0F8963003F081
:10361000C003C02B04460E46174609D1FEF782FFB1
:103620003E4B5F221A504FF0FF35284603B0F0BDE5
:10363000C36E5A0704D5FEF775FF6268374BF1E792
:103640009D0710D44FF0FF334FF0FF326946CDE9AC
:1036500000234AF044F9031E05DAFEF763FF2F4A00
:103660005B421350DFE7002204F17000002346F0B4
:10367000C7FD044620B9FEF755FF284B0B22D1E7C2
:10368000FFF78CFA051E06DA204649F0BBFF2046FC
:1036900001F012FDC7E704F170006CF05DFAA8B10B
:1036A00090F83630990711D5E36E43F00103E366D5
:1036B000284649F053FF204649F0A4FF204601F078
:1036C000FBFCFEF72FFF154B7122ABE7B4F89630E9
:1036D0005A0508D5FEF726FF104B71221A502846CE
:1036E00049F03CFFD0E723F40073A4F896303A4643
:1036F0003146204649F067FF40B1284649F02EFF89
:10370000FEF710FF054B86221A50BDE7044A4FF41E
:10371000404321462846FFF787FA86E70C00000061
:10372000641007002DE9F04F8DB0904699464FF098
:10373000FF324FF0FF33CDE90423169B0D465906A7
:10374000DDE91767044603D4C36E13F0020330D0DB
:1037500000220023CDE90423169B13F002030193FA
:1037600004F1700439D01022002107A8DDE904AB70
:103770006CF0B0FF04238DF829300B9401215B46D7
:10378000524607A847F0CEFD00F10B010B29034676
:1037900019D840F68102CA40D20714D520466CF0F1
:1037A000D7F90446F8B9FEF7BDFE554B0B221A5067
:1037B0000EE004AA042101F077FD04A920464AF096
:1037C0008EF8031EC8DAFEF7ADFE4D4A5B42135079
:1037D0004FF0FF300DB0BDE8F08FDDE90423204647
:1037E00046F00EFDDDE7D0E903BAAEB1A7B14BF06C
:1037F000A6FE94F83630C3F302133380C4E903BA4B
:103800008623FEF78FFE3E4A1350019B002BDFD12B
:1038100020464BF038FEDBE7002D40D0EB680BB1C3
:10382000AB6823B9FEF77EFE354B0C22BFE720467E
:103830004BF039FF81454F4628BF07460646B8463C
:103840000023B8F1000F0FD1B14503D2AB6943F0AB
:103850002003AB612B69002B4DD0696971B30F292F
:1038600047D8C5F8148029E0AA68D158D01821B9E2
:10387000FEF758FE224B162299E742680393424511
:1038800028BF4246204602924BF0B3FE039B029AA9
:10389000083308B16923B4E7A8EB0208D1E7204652
:1038A0004BF001FF81454F4628BF074606463A4682
:1038B000414620464BF09DFE0028EBD1019BE3B929
:1038C00020464BF0E0FD169B13F0200F0CBF38464E
:1038D00030467FE79044073222F00700103018444A
:1038E0008842BED822F0070213441A68002AF1D198
:1038F000B7E71944F9E76B61E0E7C4E903BAE2E727
:103900000C0000002DE9F04F90468DB01E464FF0A0
:10391000FF324FF0FF33CDE90823B0F89630DDF8E1
:1039200058A00D46D90704460ED5C3F34103022B18
:103930000ED08023FEF7F6FD594A13504FF0FF36A4
:1039400030460DB0BDE8F08F0923F3E78623F1E799
:103950001AF0400F02D1C36E9A0715D5002200233A
:10396000CDE90823002EEBD0CDE90586DDE9087905
:103970000AF4807BADB1B8F1000F12D1EB685BB9EE
:103980006FF015004342D5E713F00503EAD108AA0A
:10399000042101F089FCE5E7AB681A685B680592D1
:1039A0000793CDE90A7902A8DDE90A236CF006FB4A
:1039B000DDE90223CDE900234FF000084646069BCF
:1039C00073B3E36E13F0040014D060684042002823
:1039D00020EAE076D6DBDDE91712204649F0F3FD58
:1039E0000028B3D11AF0020FAAD1314620464BF07D
:1039F000B2FBA5E7DB07EAD457EA090312D1D5B930
:103A0000534606AA05A9204649F01FFE831950EA2D
:103A1000030643D157EA09071AD0BBF1000F35D18D
:103A20003046D4E70AA92046CDE90A7949F057FF84
:103A30000028E4DACBE7534607AA05A9204649F057
:103A400004FE064450EA060305D157EA090302D1F1
:103A50006FF00A0096E7AA6852F838100144059101
:103A60000699091A069107994FEAC8030029D4D18B
:103A7000E96808F101088845D2D00833D118D25836
:103A80004B68059207930AB1002BD4D1DDE90023DE
:103A90000AA86CF0B8FADDE90A7990E71E46BCE79F
:103AA0000C000000F0B585B01C46DDE90A6713463E
:103AB0000AB3B0F89620C2F38112951E012D08D8E2
:103AC0000A46CDE9016700940021FFF72BFE05B0FF
:103AD000F0BD012A07D10A46CDE901670094002113
:103AE000FFF710FFF3E7FEF71DFD044B86221A5087
:103AF0004FF0FF30EBE71046E9E700BF0C00000095
:103B0000F0B5B0F89630C3F3811C85B0644699B126
:103B10008E68D6B10023CF681D460436AF4218D157
:103B2000023C012C1AD80C1D02940C68CDE900242B
:103B30000022FFF7F7FD06E01623FEF7F3FC0D4A1F
:103B400013504FF0FF3005B0F0BD0C23F5E786238E
:103B5000F3E756F835E001357344DFE7BCF1010FB8
:103B6000F5D10C1D02940C68CDE900240022FFF76A
:103B7000C9FEE8E70C00000038B5062914461A46CD
:103B8000049B3DD008DC00293FD001290ED0FEF770
:103B9000C9FC294B6D2217E02929F8D1122C47D0F6
:103BA000132C47D0102CF2D10F2135E0262C24D035
:103BB0000CDC032C17D0042CE9D11B68042B0FD08C
:103BC000FEF7B0FC1C4B16221A502EE0272CDED13B
:103BD0001B68042BF4D1B0F89630C3F3C20300E0A5
:103BE0004368136007E0B0F89610C1F381111B68B9
:103BF000042BE5D11160002038BDB0F89410F6E731
:103C0000012CC4D16FF07A00F6E7022C03D0212CEE
:103C1000BDD10D2100E0102101F046FB031EEADAC0
:103C2000FEF780FC044A5B4213504FF0FF30E3E79D
:103C30000E21F1E71621EFE70C00000038B5062948
:103C4000154604461A46049B6AD008DC00296CD04D
:103C5000012923D0FEF766FC3E4B6D222DE0292979
:103C6000F8D1103D0A2DF5D801A151F825F000BF7B
:103C7000433D0000493D00004D3D0000513D000026
:103C8000553C0000553C0000553C0000553C0000F0
:103C9000553C0000553C0000CF3C00000D2D16D0D7
:103CA000192DD7D1B0F89610C1F3C2000138012800
:103CB00005D9FEF737FC274B6A221A501AE013B1D8
:103CC0004AB1107828B921F40061A4F896100020B8
:103CD00038BD082B04D0FEF725FC1E4B1622ECE75E
:103CE000104600F01BFF031E07DAFEF71BFC194A03
:103CF0005B4213504FF0FF30EAE700F0B1FD20B90E
:103D0000FEF710FC134B1322D7E7B4F8963043F4B8
:103D10000063A4F8963000F06DFE84F89800D6E7B2
:103D2000012D97D16FF07A00D2E7022D07D0212D17
:103D300090D10D2101F08CFA031EC8DAD5E71021CD
:103D4000F8E70F212046F5E71321FBE70E21F9E7FD
:103D50001621F7E70C00000000B5B0F89630C3F369
:103D60008110032813D0B1B1AAB1DA0511D5012809
:103D700011D1C3F34103022B14BF80231623FEF796
:103D8000D1FB064A13504FF0FF305DF804FB5F2370
:103D9000F5E78023F3E71623F1E700BF0C000000EE
:103DA00000B5FEF7BFFB034B79221A504FF0FF30EE
:103DB0005DF804FB0C000000014BDB68184700BFF6
:103DC0006410070013B504464BF076F8031E08DABA
:103DD000FEF7A8FB094A5B4213504FF0FF3002B0D8
:103DE00010BD63680093064900230022204601F0BD
:103DF00087F9031EECDB0020F1E700BF0C00000098
:103E00008BD90400F0B585B006460F461546FEF77F
:103E1000C5FE041E10DB6ABA03AB92B2F9B2B0B2AF
:103E200001F0C4F8051E0CDA204649F097FBFEF7B6
:103E300079FB164B6D421D504FF0FF34204605B004
:103E4000F0BD03980023436070306BF02FFE0398A1
:103E50000F49436800930022002301F051F9051E29
:103E600003990BDA084601F027F9204649F076FB62
:103E7000FEF758FB054A6D421550DDE7054A4FF441
:103E800040432046FEF7D0FED8E700BF0C000000FC
:103E90008BD90400A81007002DE9F04389B04FF03A
:103EA000FF38109F4FF0FF39CDE9068904460D46D3
:103EB000164657B9FEF736FB174B79221A504FF0CA
:103EC000FF33184609B0BDE8F0835B0603D4C36E28
:103ED00013F002031BD000220023CDE90623636800
:103EE0000493DDE90623CDE9022300230193119B0E
:103EF000009332463B46294620464BF002F9031E0A
:103F0000DFDAFEF70FFB044A5B421350D7E706AA3D
:103F1000052101F0C9F9E2E70C00000070B54FF08F
:103F2000FF33154686B04FF0FF32CDE904236B0610
:103F300004460E4603D4C36E13F002031AD00022C7
:103F40000023CDE90423DDE904010023CDE90001CC
:103F500002932A46314620464BF0AEF8031E06DA9D
:103F6000FEF7E0FA064A5B4213504FF0FF33184663
:103F700006B070BD04AA052101F096F9E3E700BF81
:103F80000C0000002DE9F04F1C468BB00F46924606
:103F90004FF0FF334FF0FF326106CDE90023159E4D
:103FA000054603D4C36E13F002032DD00022002374
:103FB000CDE9002314F0020405F1700B30D010227B
:103FC000002105A8DDE900896CF084FB04238DF84D
:103FD0002130CDF824B0012142464B4605A847F0D8
:103FE000A1F900F10B020B2A04D840F68103D3405B
:103FF000DA070ED44342FEF795FA5E4A13504FF0AB
:10400000FF300BB0BDE8F08F6A46042101F04CF997
:10401000D0E758466BF09CFD804648B90B23EAE791
:10402000DDE90023584646F0EBF8F5E76923E2E7BF
:10403000D0F808900020B9F1000F50D1824528BF78
:1040400082465246394640464BF0D3FA0028EDD11D
:10405000149B002B5DD0002E5BD0142249460DEB43
:1040600002006CF037FB95F9980000F0F9FB05466B
:1040700000284ED00323ADF8143000F0BBFC0690AE
:1040800098F837305B0730D598F821208DF81F203D
:10409000082A28BF082208F1220108A86CF0F3FAC8
:1040A000B8F834305BBAADF816302B68002B5DD011
:1040B0001B7C032B08D1012308F12A0205A92846FD
:1040C000ADF81C3049F085FC32681498142A28BFDA
:1040D000142205A96CF0D7FA1423336019E0B9F85B
:1040E0001030D9F804901844A5E72B68002B3DD078
:1040F0001B7C032BE8D14046D8E903974BF01FFA0D
:10410000D8F80820D36813B1128A0D2A07D8C8E955
:10411000039740463CBB4BF0B6F9504671E7062288
:104120008DF81F20D3F8060008905A89ADF8242096
:10413000597B1A7B42EA0122ADF816200122ADF824
:104140001C201A689B88CDF80A20ADF80E3002AA10
:1041500040F2036305A92846ADF8083049F039FC60
:10416000C8E90397B0E74BF0EAF9D6E799F80030D1
:10417000FFDE00BF0C00000013B5049C43B13CB14E
:10418000084CE46A0194A44602B0BDE810406047C0
:10419000FEF7C8F9044B16221A504FF0FF3002B058
:1041A00010BD00BF641007000C00000010B4024CEA
:1041B000246BA44610BC6047641007002DE9F04F43
:1041C0004F4D87B00023074649F042FC8DF816306A
:1041D0008DF817302B6803900C463BB949484FF0D7
:1041E000FF324FF0FF3349F06FF9286094F8363012
:1041F000C3F30213032B26D1636923B96FF01500B3
:1042000007B0BDE8F08FB3F89620C2F38112032AFD
:1042100037D0022AF2D193F83B20082A03F13C015F
:1042200005D884F82B2004F12C006CF02CFA3B68A4
:104230005A7C082A03F1120105D884F8212004F1E0
:1042400022006CF020FA0DF11703009304F1200214
:104250000DF1160304F12A0138464AF069F84FF0CF
:104260000009294EA36833604FF0000804F1200ACA
:1042700004F12A0B33683BB920464BF004F9404661
:10428000BEE74FF00109ECE7286849F018F9286803
:104290009DF816100C3049F030F931689DF8163051
:1042A0000A8A9DF81700134403447D2BA6DC286876
:1042B000C9680C3049F027F9336828685B689DF8B5
:1042C000171033600C3049F018F9B9F1000F0AD01B
:1042D0002A682146384649F0B4FD002890D12B6861
:1042E0001B8A9844C6E79DF8163000932B68039804
:1042F000524659464AF02DF80028E9D17EE700BF22
:10430000901B0120800F00208C1B01202DE9F34120
:1043100006464AF00CF9904682690C460546002A8A
:1043200044D0CB685B7800F11C07C3F3C0139375CE
:1043300038464FF0FF324FF0FF334AF07EF9A26863
:10434000AB6912885A81AB6983F815802368AA6922
:104350005B7803F0C003802B1FD102231375A26882
:10436000AB6952889A81217CE06849F0B0FE238ACB
:10437000AA690F491B1AD361E368AA6903449361D0
:10438000002300933246012000F094FD38464AF0A5
:1043900056F9012002B0BDE8F08108231375A16829
:1043A000A86902310C304AF04CF9DCE70220F1E751
:1043B0000000A0D0F8B5064610464AF0B8F800F163
:1043C0005C074FF0FF3304464FF0FF3238460D468E
:1043D0004AF033F90C4B9D4208BF012E0AD194F8E4
:1043E000423043F0800384F8423038464AF027F9DF
:1043F0000020F8BD9D4208BF022EF6D194F842304D
:1044000023F08003EFE700BF0000A0502DE9FF4735
:10441000074610464AF08BF89A4689460C9B15468B
:104420000446BAF1000F00F0E680764A914208BFD8
:104430000C2F03D0914208BF142F29D1082B40F034
:10444000DA8004F15C084FF0FF324FF0FF33404652
:10445000BAF800604AF0F1F820464AF0E2F8C8B134
:10446000684B994508BF0E2F40F0B9804FF6FF7397
:104470009E4240F0B480A388B34259D04FF6FF73F8
:104480009E4240F09180214628464AF022F94FE0B2
:10449000022BD4E75C4B083F49EB03090F2F79F15E
:1044A000000945D20E2F43D801A353F827F000BFCF
:1044B000ED440000314500001B450000314500007F
:1044C00045450000314500007744000031450000BB
:1044D00031450000BB45000031450000314500007A
:1044E0003545000031450000414500006388B34276
:1044F0001ED03146284649F0FAFF002872D02846DF
:1045000031464AF01EF8054600B9668040464AF03A
:1045100096F8284604B0BDE8F08721888E4207D07F
:1045200028464AF063F82680314628464AF02CF89F
:104530000025EBE7514604F134004AF082F8F7E732
:10454000A687F5E7514602A84AF07BF8A61D082287
:104550000DEB020130466CF0CCF80028E8D002AB3D
:1045600003CBC4F806007160002D47D02B68002BE8
:1045700044D05B7C082B03D1214628464AF099F8A9
:10458000284649F0D9FF8468002CD1D06368984749
:104590004307CDD528460196246949F0CDFF01ABEC
:1045A00000220121A047C3E722889A421DD032464B
:1045B000214628464AF0ADF8BAE7B4F93E3036B2A3
:1045C000B342B5D0284649F0B7FF836883B15B6931
:1045D000314698470546002898D1E68796E76FF060
:1045E0000F0593E76FF0150590E74FF0FF358DE766
:1045F0006FF001058AE76FF015058AE700235B7805
:10460000FFDE00BF0000A050FFFF5FAF2DE9F341C8
:10461000054630B3066806B1B66801AA00212846EF
:104620004AF016F9F8B9BDF8044024B1B4F5007F9A
:104630000CBF32240C2401AA0021284676884AF0B7
:1046400007F9BDF80430102B04F108041ED00CD873
:10465000012B0FD0002E49F6404118BF4FF47A517C
:1046600011E00646D9E70024E5E7202B69D044F69F
:10467000206108E00A2E64D84CF2503146F2A813AB
:10468000002E18BF194684FB01011AE001AA02217D
:1046900028464AF0DDF8002850D1019B082B20461F
:1046A00048D8013B072B45D8DFE803F0043C4440E1
:1046B00044444444FCF70CFA2649FCF75DFAFCF745
:1046C000EBFC4FF47A720023FCF742FC0526074608
:1046D00003244FF0010804210DEB010048F064FFB2
:1046E000019A08FA04F3013B1340DBB207FB03F025
:1046F00045F02EFA5DB32B684BB3186883681BB383
:104700009B68984758B110F1100F1DD1042C28BF99
:104710000424013E013416F0FF06E4B2DBD102B0FE
:10472000BDE8F081FCF7D4F90B49C6E7FCF7D0F9F6
:104730000A49C2E7FCF7CCF90949BEE70020014667
:10474000BFE74FF47A519EE76FF00400E7E70023DC
:104750009B68FFDEC3657845C365784452687E4434
:10476000E14A3644014608B503484AF080F8B0FAF9
:1047700080F0400908BD00BF9C1B0120014608B520
:1047800003484AF074F8B0FA80F0400908BD00BF51
:10479000941B01202DE9F743036800211F7F044685
:1047A0004AF030F9B0BB02252368002B53D0A04655
:1047B0001D7720464AF05BF958F8109B6BF0FCFB24
:1047C0004FF47A72A0FB020302FB0131C00B40EAF6
:1047D0004140C90BC9E9080140464AF05BF923682A
:1047E0001B7FAB424FF0000635D1062D28D1062F96
:1047F00031D0204608214AF011F90096334622466E
:104800000220164900F056FB204603B0BDE8F043F5
:104810004AF034B920464AF0E7F86BF007F868B17F
:10482000092120464AF0EEF80028BCD00A21204693
:104830004AF0E8F8C0F10605EDB2B5E70325B3E7A5
:10484000062F08D1204608214AF0FBF8009633468F
:1048500022460120D5E703B0BDE8F083000010D068
:10486000002809DD431E05483C2202FB0300044BDF
:10487000984228BF0020704700207047AC0F0020EE
:10488000E80F002008B50749074B02468B4202D3C8
:104890000023184608BD18464AF0A6F88242F8D010
:1048A0003C33F3E7E80F0020AC0F0020054B064A2D
:1048B000934205D0054A1068002808BF1846704783
:1048C00000207047AC0F0020E80F0020B41B01202F
:1048D00008B50749074B02468B4202D3002318460E
:1048E00008BD18464AF07BF88242F8D03C33F3E723
:1048F000E80F0020AC0F0020F8B54FF0FF3305465D
:1049000017460E484FF0FF320E464AF0AEF80C4BF9
:104910001B680BB11C6823B9BDE8F84007484AF092
:10492000B9B85B683A463146284698471CB12268B8
:1049300023461446EFE72246FAE700BF480E002060
:10494000AC1B0120F0B585B00023CDE9013304464E
:10495000ADF80C300D46002944D0254B1B685BB1E7
:1049600095F82B20082A01F12C013BD80DF1060007
:104970008DF805206BF087FE092120466F694AF00B
:1049800041F888B30D2120464AF03CF838B94FF081
:10499000FF324FF0FF3304F124004AF066F820465E
:1049A0004AF01DF829464368204698470D210646DF
:1049B00020464AF027F818B904F124004AF06AF8B2
:1049C000002E02DA28464AF05EFD1FB13146384615
:1049D0004AF00FF89DF8053023B1324601A9204670
:1049E000FFF78AFF05B0F0BD6FF07206EAE700BF7F
:1049F000AC1B0120074B984208D3074A904205D2CE
:104A0000C01A064B80105843013070474FF0FF30FA
:104A1000704700BFAC0F0020E80F0020EFEEEEEE75
:104A2000F8B5064C064F05460E46BC4200D3F8BD0D
:104A300020463146A8473C34F7E700BFAC0F0020C2
:104A4000E80F002037B505464AF011F80021284646
:104A500049F0D8FF50BB284649F0C1FF044680B159
:104A6000846874B1284649F0BFFF6AF0DFFE00B3E6
:104A7000284649F0B4FF0121836828469847041E60
:104A80000DDB0021284649F0C9FF002308200A4910
:104A900000932A4600F00EFA2846FFF77BFE05F148
:104AA000100049F0F7FF204603B030BD6FF07704E7
:104AB000F5E76FF00504F2E7000010D02DE9F041B2
:104AC0000D460646E8B1E1B10846FCF7DDFA0828D4
:104AD0001AD8104FDFF84080441C474507D32246C0
:104AE0002946301D6BF0CFFD0020BDE8F081B742B4
:104AF00005D022462946381D6BF0FBFD38B13C3706
:104B0000EBE76FF01500F0E76FF05A00EDE76FF09C
:104B10007700EAE7AC0F0020E80F002070B50546EB
:104B2000B0B10D4C0D4EB44202D36FF0010070BD18
:104B30002846FCF7A9FA29460246201D6BF00FFE15
:104B400020B92046BDE87040FFF754BF3C34EAE787
:104B50006FF01500EBE700BFAC0F0020E80F00205E
:104B60002DE9FF412848294C294E2A4F2A4D4FF064
:104B7000FF324FF0FF3349F078FF4AF06AFEB4424B
:104B800005D3214804B0BDE8F04149F083BF0022BD
:104B9000C4E901222273204649F026FFD0F808809C
:104BA000B8F1000F14D0D8F800308BB104F1100028
:104BB0006AF0EBFE04F124006AF0E7FED8F800305A
:104BC0002046984794F8383023F0030384F83830AF
:104BD00023798BB9204649F002FF87420ED10F4A54
:104BE0001368591C11600E4A092101A847F0DEFC28
:104BF00001A92046FFF762FF3C34C0E72B685A1C2E
:104C00002A60084AF0E700BF480E0020AC0F0020E1
:104C1000E80F002010100020A41B0120A81B012079
:104C2000D7290700DE29070038B5074C074DAC42ED
:104C300000D338BD0321204649F0E4FE10B92046D8
:104C4000FFF700FF3C34F2E7AC0F0020E80F002034
:104C50002DE9F041474F86B047480022002302A9C2
:104C600045F0AAF9054610B106B0BDE8F081434809
:104C7000434CDFF810814FF0FF324FF0FF3345F027
:104C8000FDF944450CD3404D2C681CB126684FF00B
:104C9000000824BB394849F07AFF45F059FFDBE7AB
:104CA000DDE90201D4E9002381EA03063E4214D182
:104CB000C1F31306064309D0C3F31306164305D008
:104CC0000B400240C3F313031A4306D0E368049A6F
:104CD000CDE900530023A668B0471034D1E7DDE9E1
:104CE0000223D4E9021083EA000C1CEA070F2CD13E
:104CF000C3F3130C52EA0C0C0CD0C0F3130C51EAA2
:104D00000C0C07D003EA000C1140CCF3130C51EA51
:104D10000C011AD00001616824D5886918B1DDF84A
:104D200010C0604511D1C4E90223049B8B61236844
:104D3000B8F1000F0ED16A682B60944200D16B600D
:104D400000236068236045F08DFA8EB133683446E5
:104D50001E469EE7C8F800306B689C4208BFC5F845
:104D60000480EDE70498009020468847A046ECE7D1
:104D70003346ECE70000F037980E0020700E00205C
:104D8000200E0700200E0700B81B01200C4B1A68EC
:104D9000002102B9704782420FD1026839B95968BF
:104DA0001A60884200D15A600023036070470A608D
:104DB0005A68904208BF5960F6E711461268E8E762
:104DC000B81B012070B5184C1848194D002200235B
:104DD0000021C4E900230B460A46A8420CD391B136
:104DE000C4E900321349096881B10868002579B91E
:104DF0000DB1C4E9003270BDD0E9006110300A4342
:104E000033430121E9E70B460A46EBE70846EDE7A5
:104E1000D1E902512B430A4320B1056801462846D7
:104E20000125E4E70546F9E738100120200E0700C8
:104E3000200E0700B81B012010B504464FF0FF32CA
:104E40004FF0FF330D4845F019F92046FFF79EFF5C
:104E50000B4B1A6822605A681C6002B95C60094BEF
:104E6000D4E90212D3E9004021430243C3E900120E
:104E70000248BDE8104049F08ABE00BF700E002015
:104E8000B81B01203810012010B504464FF0FF3246
:104E90004FF0FF33064845F0F1F82046FFF776FF64
:104EA000FFF790FFBDE81040014849F070BE00BF19
:104EB000700E002070B51C4B0C461646C1F30172F3
:104EC000D3E9001332EA137205462BD1C4F306521C
:104ED00032EA135226D124EA030320EA0101C3F384
:104EE000130319431ED14FF0FF324FF0FF330F4829
:104EF00045F0C4F80E4B1946002241F80C2943F83E
:104F00000C5CC1E901464FF4A472002309486AF021
:104F10002DFD064849F03BFEBDE8704006490748B4
:104F20006AF08FBE70BD00BF38100120840E0020D3
:104F300034100120980E002078030020401001203A
:104F40007FB5FFF73FFF0023CDE904330848094B45
:104F500003936AF095FE03AB0093074904484FF0B2
:104F6000FF334FF4507245F017FB07B05DF804FBB8
:104F700040100120E42907004077012010B50A4BBA
:104F800000211A46B3F89640E40706D55C6C8442CB
:104F900003D19C2303FB012010BD01310A2903F139
:104FA0009C03EFD10020F7E7D81B012003282DE94F
:104FB000F0478A4690461F4611D009D8013801288B
:104FC00094BF6FF05F046FF069042046BDE8F0877E
:104FD000042814BF6FF069046FF05F04F5E78B1EBF
:104FE000012B5CD8002F5DD04FF0FF332F484FF0DE
:104FF000FF3245F071F92E4B00259946B3F89640E3
:1050000014F001040ED001350A2D03F19C03F5D1F3
:105010006FF00104254845F025F9002C18BF6FF00A
:105020000104D2E79C22554309EB05062146304690
:105030006BF050FBFFF73AFCB8F1060FE8D0FF2306
:1050400086F898301B4BA6F896402B440121BFF3FD
:105050005B8F53E8002F43E800100028F9D1BFF31D
:105060005B8FB6F89600A6F8948040EA8A1040F06C
:105070001800A6F8960005F154004FF0FF3248449E
:105080006AF06EFD05F10C0048446AF07EFCB6F84B
:10509000963043F00103A6F896303E60BAE76FF011
:1050A0006A0492E76FF015048FE700BFC01B012070
:1050B000D81B0120E01B012070B50446D8B10F4B6E
:1050C000984218D303F5C363984214D200F10C063A
:1050D0004FF0FF324FF0FF330025304649F088FD96
:1050E0003046C4E91255256549F084FD204649F053
:1050F000B0FE284670BD6FF01500FBE7D81B0120FD
:105100002DE9F04F1F46B0F8963093B0DB07DDF87D
:1051100070B004468A46904640F1948000F10C0637
:105120004FF0FF324FF0FF33304649F061FDB4F8E5
:105130009650C5F3C205032D40F081800DF1200982
:105140001422002148466BF0C5FA94F99800FFF745
:1051500087FBE26A03469AB9B4F89420ADF834505C
:1051600052BAADF8362010B1FFF744FC03461422C2
:105170000DA920460E9349F09FFE0546002840D118
:105180000323ADF82030636A0993E16A638CADF8BC
:10519000223094F82B308DF82B3049B111F8012CC6
:1051A0008DF82B20082A28BF08220BA86BF06BFA79
:1051B000606CC4F848A058B30023CDE9019323499B
:1051C00000935A4600F040FB0028054619DB58EAD8
:1051D000070316D05434204645F0A4F8304649F071
:1051E00009FD42463B46204645F076F84FF0FF3237
:1051F0000B304FF0FF33304608BF6FF0730549F0B6
:10520000F7FC304649F0F6FC284613B0BDE8F08FB5
:1052100004F14403B4F89610CDF80090CDE905B33D
:105220000A4BCDE90100CDE90343C1F3C2020346B5
:10523000C1F38111B4F8940000F0E6F9C4E76FF00F
:105240006A05DEE76FF00805DEE700BF93EB0400B8
:1052500038B50D4610B3134B98421FD303F5C36303
:1052600098421BD200F10C044FF0FF324FF0FF3395
:10527000204649F0BDFC132D09D8002D0CBF002598
:105280006FF08505204649F0B5FC284638BD153D30
:10529000032D94BF6FF085050025F3E76FF015052A
:1052A000F3E700BFD81B01202DE9F0410C4616465C
:1052B0001D468046A8B31C4B984232D303F5C36306
:1052C00098422ED200F10C074FF0FF324FF0FF331F
:1052D000384649F08DFC142C09D005D8013C122C1D
:1052E00015D86FF0850413E0153C032CF8E7B8F8E7
:1052F00096301B0512D598F99800FFF7B1FA10B156
:10530000006800B1408B30600DB104232B60002495
:10531000384649F06FFC2046BDE8F0816FF0690423
:10532000F6E76FF01504F6E7D81B012002484FF0AE
:10533000FF3201216AF014BCC01B012073B5044682
:1053400016461D466AF0B3FC08B1002635462B46CA
:10535000324601A9204644F07BFD0546B8B93C22FF
:10536000014601986BF0B6F90A4A0198012394426C
:10537000C361446005D180F83B304AF0E0F802B0E8
:1053800070BD054B9C4208BF80F83B50F5E70020FC
:10539000F5E700BF040E0020E80D00202DE9F743DB
:1053A000DDE90A67054691461C46884629B923B9B6
:1053B00090F8363013F0700F36D06AF078FC08B1F0
:1053C0000026002728464AF085F888BB95F8363035
:1053D00013F0700F2CD0012C2CD0A4F13A025342C0
:1053E00053419B0008EB0301081A814228BF014684
:1053F0006B681348134CCDE90067134E4A46B3421D
:1054000018BF204649F084FF0146A8B128464AF05B
:105410009CF8B9F1000F07D0A86849460C3048F055
:1054200068F828464AF08BF8002003B0BDE8F08306
:105430000023D7E70423D5E76FF00B00F5E700BFA3
:10544000540F0020280F0020040E00202DE9F74300
:10545000DDE90A45064690460F4639B932B990F85B
:10546000363013F0700FC3F3021026D06AF01FFC21
:1054700008B100240025B06950B9434600223946DE
:105480003046CDE90A4503B0BDE8F043FFF786BFDB
:1054900072680C4B9A42F0D103688BB15B68D3F809
:1054A0001090B9F1000FE8D0CDE9004543463A46E7
:1054B0003146C84710F1860FDFD003B0BDE8F08356
:1054C0001B69FFDE040E002030B585B0DDE908451C
:1054D0000093CDE9024513460A46014602484AF0C8
:1054E00045F805B030BD00BF040E002030B585B0D2
:1054F000DDE908450093CDE9024513460A46014619
:1055000002484AF033F805B030BD00BFE80D002076
:1055100008B5044BA02202FB00306AF004FB002017
:1055200008BD00BFE01001200828024B28BF002062
:10553000185C70476BC3070010B588B00F4C20464D
:105540006AF0B4FA4FF0FF324FF0FF33CDE9062393
:105550000023CDE90323CDE901330949094B009428
:105560004FF4C06204F1180045F0F8F820B108B01B
:10557000BDE810406AF06EBC08B010BDE01001201C
:10558000C07A012033F8040008B5014658B1BFF3D2
:105590005B8F074B1B68BFF35B8F33B105486AF025
:1055A000C2FA002008BD0120FCE70220FAE700BF94
:1055B000F0210120100F002002460B46014844F064
:1055C0005DBD00BF200E0020014844F0C9BD00BFF2
:1055D000200E002010B54022002104466BF07AF81E
:1055E0004FF0FF304FF0FF31FFF7E6FF054B1A6831
:1055F00022605A681C6002B95C60BDE81040FFF789
:10560000E3BF00BFFC2101202DE9F04F85B01D460E
:10561000119CBDF84030BDF83C6001918246914636
:1056200000934CB394F99800FFF71AF90746204607
:1056300049F0FDFB83464FF0FF304FF0FF31FFF79D
:10564000BBFF614B1B6833B1009AD3F8008051BA9D
:105650008AB202929BB9FFF7B7FF4FF0FF304FF0CD
:10566000FF31FFF7A9FF594B1F68002F4ED1FFF7FD
:10567000ABFF6FF0010836E02746A346DBE7198F42
:10568000514518D193F83B10494514D10E9A92B95F
:1056900093F83C1048070ED4588B029A90420AD1D6
:1056A0004DB9890707D4BBF1000F0CD1D88871BA66
:1056B00089B2884211D0B8F1000F25D0D8F8001077
:1056C00043468846C6E7186B0028EFD0039349F09D
:1056D000AEFB039B0028E9D0EDE71B6B3BB9FFF75E
:1056E00073FF6FF06F08404605B0BDE8F08F002FE4
:1056F000F5D0B3F896100A05F1D593F99800FFF7A5
:10570000AFF88742D7D1EAE74146D9E759683A6806
:105710001A608F4208BF5A6000233B60FFF754FFB6
:105720002DB10E9B1BB12A881B889A4245D1129B32
:10573000FB62139B7B63019B009A0E99A7F838A02C
:1057400087F83A3087F83B903C6338464AF082F855
:10575000804690BB8DBB97F83C304EB323F02203BC
:1057600043F0080376BA87F83C30FE80149B03B1FF
:105770001F6097F83C3043F0010387F83C304FF04E
:10578000FF304FF0FF31FFF717FF0F4B1A683A60F9
:105790005A681F6002B95F60FFF716FF204649F0A4
:1057A00048FB97F83D3060F3000387F83D309AE7F7
:1057B00023F02A0387F83C30D8E73846FFF70AFF82
:1057C0006FF015088FE700BFF4210120FC210120B4
:1057D0001B4B984210B504462CD303F52073984216
:1057E00028D890F83C30DB0727D54FF0FF314FF039
:1057F000FF30FFF7E1FE134B1A68002152B19442CB
:1058000015D1226869B959681A608C4200D15A6072
:1058100000232360FFF7D8FE2046FFF7DBFE0020C1
:1058200010BD0A605A68944208BF5960F0E71146FB
:105830001268E3E76FF01500F2E76FF00100EFE7A1
:1058400004220120F4210120F8B5184EBDF81850AB
:10585000B04204461F4602D26FF01500F8BD06F5AF
:105860002076B042F8D890F83C30DB071BD5C162F7
:1058700042630799BDF8202049F0ECFF0028EBD1E6
:10588000002FE9D194F83C3045B123F0220343F0D6
:1058900008036DBA84F83C30E580DFE723F02A0383
:1058A00084F83C30DAE76FF00100D7E704220120EA
:1058B0002DE9F34B90F83630C3F30213032B054662
:1058C0008946904650D14FF0FF304FF0FF31FFF73F
:1058D00073FE274B1C6824B902B0BDE8F04BFFF7FC
:1058E00073BE206B294649F0DEFF60B394F83B306D
:1058F000032B28D194F83A30434524D1238F13B396
:105900004B4504D0032B02D0B8F1030F1BD194F800
:105910003C305B070FD42846D5E903B749F00FFEAA
:1059200040F6CD420023284649F044FF064660B9C0
:10593000C5E903B707E0E669002EECD0A869FFF7D8
:1059400059F88642E7D02468C5E7636B00930023CB
:105950000146D4F82CC01A462046E0470228E7D179
:10596000304649F090FDE3E702B0BDE8F08B00BFA0
:10597000F42101200B4A002310B5C2E900330A4A82
:1059800018461146144601330A2B086002F1400202
:1059900002D008461146F6E7044B054AC3E9002445
:1059A00010BD00BFF421012004220120FC210120B0
:1059B0004424012007498B4208BF022A08B507D1B9
:1059C000054844F0AFFC0548BDE8084044F04ABC37
:1059D00008BD00BF000010D0C80E0020F80E002047
:1059E0002DE9F84F0A2790461E46054693FBF7F728
:1059F00028B9FEF75BFF0546002800F094800321DC
:105A0000284649F075FF18B16FF07200BDE8F88FB5
:105A1000002E4BDB4DD134464549464B4B60464B3F
:105A200008460222C1E90223FFF706FA00212846B0
:105A300049F05EFF00283ED00821284649F058FF73
:105A4000C8B33B48FFF720FA3C4844F06BFC3C48A5
:105A500044F008FC002E01DD002CD5DB27EAE777B7
:105A60004FF4004540F2E7300021E7FB05014FF419
:105A70007A720023FBF7BCFADFF8C8A005460F4690
:105A8000BFF35B8FDAF80030BFF35B8F38EA0303B4
:105A900004D0002C04F1FF393EDC4C46013445D1E2
:105AA000002ECCBF6FF073000020AFE74FF0FF3443
:105AB000B2E70A24B0E74FF0FF3201211F48DFF8B8
:105AC0007CB06AF04DF827EAE7754FF4004C40F2DD
:105AD000E7300021E5FB0C014FF47A720023FBF75D
