:020000040800F2
:1000000040EB0220410F0008755503082D0F000832
:100010002D0F00082D0F00082D0F00080000000014
:10002000000000000000000000000000750F000844
:100030002D0F00080000000021110008E157000802
:1000400099110008991100089911000899110008E8
:1000500099110008991100089911000899110008D8
:1000600099110008991100089911000899110008C8
:1000700099110008991100089911000899110008B8
:1000800099110008991100089911000899110008A8
:100090009911000899110008991100089911000898
:1000A0009911000899110008991100089911000888
:1000B0009911000899110008991100089911000878
:1000C0009911000899110008991100089911000868
:1000D0009911000899110008991100089911000858
:1000E0009911000899110008991100089911000848
:1000F0009911000899110008991100089911000838
:100100009911000899110008991100089911000827
:100110009911000899110008991100089911000817
:100120009911000899110008991100089911000807
:1001300099110008991100089911000899110008F7
:1001400099110008991100089911000899110008E7
:1001500099110008991100089911000899110008D7
:1001600099110008991100089911000899110008C7
:1001700099110008991100089911000899110008B7
:1001800099110008991100089911000899110008A7
:100190009911000899110008991100089911000897
:1001A0009911000899110008991100089911000887
:1001B0009911000899110008991100089911000877
:1001C0009911000899110008991100089911000867
:1001D0009911000899110008991100089911000857
:1001E00001F0FF01102A2BDB10F0070F08D010F8E8
:1001F000013B013A8B422DD010F0070F42B3F6D1EC
:10020000F0B441EA012141EA014122F007047FF004
:1002100000070023F0E80256083C85EA010586EA5B
:10022000010685FA47F5A3FA87F586FA47F6A5FA97
:1002300087F68EB9EED1F0BC01F0FF0102F00702A3
:1002400032B110F8013B013A83EA010313B1F8D14E
:100250000020704701387047002D06BF354603382F
:10026000073815F0010F07D1013015F4807F02BF68
:10027000013015F4C03F0130F0BC0138704700BFB9
:100280007BB972B90029BEBF00204FF0004106E0E3
:1002900008BF00281CBF6FF000414FF0FF3000F096
:1002A00057B8ADF1080C6DE904CE002909DB002B2D
:1002B0001ADB00F069F8DDF804E0DDE9022304B0A0
:1002C0007047404261EB4101002B1BDB00F05CF802
:1002D000DDF804E0DDE9022304B0404261EB4101B6
:1002E000524263EB43037047524263EB430300F017
:1002F0004BF8DDF804E0DDE9022304B0404261EB95
:1003000041017047524263EB430300F03DF8DDF8D2
:1003100004E0DDE9022304B0524263EB430370477B
:1003200053B94AB9002908BF00281CBF4FF0FF315C
:100330004FF0FF3000F00CB8ADF1080C6DE904CEC1
:1003400000F022F8DDF804E0DDE9022304B0704794
:10035000704700BF10F8012B11F8013B012A28BF9C
:100360009A42F7D0D01A7047034611F8012B03F8D0
:10037000012B002AF9D17047034613F8012B002AFC
:10038000FBD1181A013870472DE9F0478C468E468C
:10039000089E154604461946002B40F0D080724551
:1003A00047D9B2FA82F74FB1C7F120030EFA07FC22
:1003B00020FA03F3BD4043EA0C0CBC404FEA154E53
:1003C000A8B2BCFBFEF8230C0EFB18CC08FB00F90E
:1003D00043EA0C43994528D9EB1808F1FF3204D2BF
:1003E000994502D9A8F102022B44A3EB0903A4B258
:1003F000B3FBFEFC0EFB1C330CFB00F044EA034491
:10040000A04214D92C190CF1FF3304D2A04202D916
:10041000ACF102032C44241A43EA02401EB1FC4012
:10042000002334607360BDE8F0874246DDE7634631
:10043000F1E7002A79D0B2FA82F3002B3FD01946B7
:10044000C1F1200302FA01F52EFA03F20EFA01FEC1
:1004500020FA03F343EA0E034FEA154E00FA01F4C3
:10046000B2FBFEFCAFB20EFB1C201A0C0CFB07F813
:1004700042EA004290455AD9AA180CF1FF3004D242
:10048000904502D9ACF102002A44A2EB08029BB2CB
:10049000B2FBFEFC0EFB1C220CFB07F743EA0243F7
:1004A0009F4246D9EB180CF1FF3204D29F4202D989
:1004B000ACF102022B44DB1B42EA004202E0AEEB4D
:1004C000020301224FEA154EAFB2B3FBFEFC200C33
:1004D0000EFB1C330CFB07F840EA034398452AD96E
:1004E000EB180CF1FF3004D2984502D9ACF10200B0
:1004F0002B44A3EB0803A4B2B3FBFEFC0EFB1C339E
:100500000CFB07F744EA0344A74216D92C190CF157
:10051000FF3304D2A74202D9ACF102032C44E41BFE
:1005200043EA00400F46114678E71F2188E76046FE
:10053000ABE76246BFE76046DBE76346EFE773453C
:1005400006D916B9002108466DE7C6E9000EF9E79D
:10055000B3FA83F787B9734501D3824207D8841A67
:100560006EEB030301209C461EB900215BE7384671
:10057000FAE7C6E9004CF8E7C7F1200CBB4022FAC5
:100580000CF51D4320FA0CF12EFA0CF30EFA07FEBF
:1005900041EA0E014FEA154900FA07F4B3FBF9F8F6
:1005A0001FFA85FE09FB18300B0C08FB0EFA43EA14
:1005B00000439A4502FA07F240D9EB1808F1FF30E0
:1005C00004D29A4502D9A8F102002B44A3EB0A03F6
:1005D00089B2B3FBF9F809FB183308FB0EFE41EAB8
:1005E00003418E452CD9691808F1FF3304D28E459A
:1005F00002D9A8F10203294443EA0040A0FB029873
:10060000A1EB0E014145CE46434602D306D14C45EF
:1006100004D2B9EB020E68EB05030138002EA4D01A
:10062000B4EB0E0261EB030101FA0CFC22FA07F3B2
:100630004CEA0303F940C6E9003196E74046C5E7B6
:100640004346D9E70146014834F0DEBE46E50408DA
:1006500010B501780446602903D001F0DF03502B68
:100660000FD1084834F0D0FE94F9010049F002FFA0
:10067000054B94F9011093F90020914204BFFF2229
:100680001A7010BD4AE504080A0D022030B58378BF
:10069000A1B003BB43F239014A4A062049F0BAFE31
:1006A000011E11DA484834F0AFFE484A4FF47A731D
:1006B0006621012092F9002030F0E2FC444821B08C
:1006C000BDE8304034F0A0BE012149F0E0FE4148D1
:1006D00034F09AFEE9E7012B4ED1047B3E482146D7
:1006E00034F092FE002C43D13C4834F08DFE3C4B5C
:1006F0003C4893F900500F94294634F085FE10AA27
:100700000FA9284649F0E8FD08B121B030BD9DF899
:100710004F309DF841200C939DF84E309DF84010CD
:100720000B939DF84D3030480A939DF84C30099357
:100730009DF84B3008939DF84A3007939DF8493057
:1007400006939DF8483005939DF8473004939DF833
:10075000463003939DF8453002939DF84430019351
:100760009DF8433000939DF8423034F04DFEC6E7CB
:10077000042CCAD11D48A2E7662BC6D11C4A1D4CC9
:1007800013680133136094F90020002A0EDB402126
:10079000194A0DEB010033F0EDFE10A982B294F975
:1007A000000049F0E7FF154834F02EFE074A4FF4E9
:1007B0007A736621012092F9002021B0BDE8304013
:1007C00030F05EBC010800086FE504080B0D022044
:1007D000CAE5040895E50408F2E5040820E60408E3
:1007E000688E022050E6040876E60408C3E6040892
:1007F000785402200A0D0220F8E6040806E70408EF
:1008000070B5037886B0402B24D1154A01A990F920
:1008100001002EF0C3FA061E1CDB01AD00241148B6
:1008200034F0F2FD15F8011F0F4834F0EDFDE30739
:1008300001D40134F6E70F2C0ED10C4C0C48BDF856
:10084000161034F0E1FD94F90000002801DB49F0B6
:1008500011FE267006B070BD064834F0D5FDE8E7FD
:10086000510600080EE70408C40205080A0D02201C
:1008700031E70408F549050808B5184834F0C4FD07
:1008800000234FF4804116481A462EF07BFF2EF0CD
:1008900091FC14482EF0D4FC5F202EF0CBFC30F0FD
:1008A0007FF905F00DFA104B00280146187010DA98
:1008B0000E4834F0A9FD00210D4830F0F1F80D4B41
:1008C000187005F01FF9002142F210704BF0B3FBD5
:1008D000F9E7094834F098FDEDE700BF3DE704086B
:1008E000C00F022045060008688E022052E7040867
:1008F0008D0600080B0D022092E70408014B1B68CF
:10090000184700BF38080220014B1860704700BF2D
:100910003808022030B5044685B00D46102200216B
:1009200068464CF069FA02232A4621468DF80230C7
:100930006846034B019333F06BFE05B030BD00BF3A
:10094000FD08000880B505460E461746984632F069
:10095000C9F8DFF82090034600F030FC0446424618
:1009600049F8003039463046A84754F8090000F0ED
:10097000C1FB00BF08000000034A0020536823F0B9
:1009800002035360704700BF002004E008B54168CF
:1009900005480C3183681B681BB1984700EAE0707A
:1009A00008BD6FF05700F9E734D40408192810B5D2
:1009B00002D90024204610BD044B53F820402046A5
:1009C0004BF053F80028F5D1F3E700BF08DC04082A
:1009D000064B1A6842F400721A601A6842F4807278
:1009E0001A60034B034A1A60704700BF003C024084
:1009F000B00C02200024F400014B03600320704778
:100A000070DC040806480021064A08B5121A34F0C2
:100A1000A9FD0548054A0021121A34F0A3FD08BDBE
:100A2000C00F02203CA70220000000200000002090
:100A30000A480B4A0B49121A08B534F095FD0A48CA
:100A40000A4A0B49121A34F08FFD0A480A4A0B4928
:100A5000121ABDE8084034F087BD00BF0000022034
:100A6000BC0F0220D05D050800000220000002201B
:100A7000D05D050800310020003100208C6D050894
:100A800038B505460C4699B11048D1E901230968EB
:100A900034F0BAFCE1680E48D4E9042334F0B4FC25
:100AA000E1690C4834F0B0FCA1690B4834F0ACFCAF
:100AB000012D05D1EFF305810848103934F0A4FC6D
:100AC00021462846BDE8384030F076BFA1E804084A
:100AD000D1E8040801E9040811E9040840E9040820
:100AE00030BFFFF7FDBF00BF2DE9F0410B4E0546BB
:100AF000DFF82C80324606EB0807CC1B094920465C
:100B00004CF053F9A019083C424600214CF074F90E
:100B100007F108006C67BDE8F08100BF000000002D
:100B200008000000A4DA04082DE9F843324D80469D
:100B300032488946174634F067FCAB6ADE0622D598
:100B400011242F4834F060FCAB6A1D0703D5122432
:100B50002C4834F059FC284DAB6A980715D52A4823
:100B600034F052FC6E6BAB6A190642D53146274809
:100B700034F04AFCB9F1000F03D0AB6A23F08003D4
:100B8000AB62132403E01024DEE76FF015061A4D64
:100B9000AB6ADA0703D514241D4834F035FCAB6A80
:100BA0009B0603D515241B4834F02EFC124B9A6A81
:100BB000D50602D49A6A90070AD55B68190507D54D
:100BC0004146304600F04CFA10B180F30988022407
:100BD000094B9A6A920603D55A6A22F400525A6265
:100BE0009A6A204642F0FF029A6200233B70BDE8F9
:100BF000F8836FF01506C4E700ED00E054E904083F
:100C00006BE904089FE90408B3E90408CCE9040887
:100C1000E3E9040803EA040810B51D4C1D4834F04C
:100C2000F3FBA36A990130D51B4834F0EDFB1E207D
:100C3000A36ADA0103D5194834F0E6FB1F20144CEF
:100C4000A36A1B0303D5164834F0DEFB2120A36AF8
:100C5000590303D5134834F0D7FB22200C4CA36A68
:100C60009A0303D5104834F0CFFB2320A36ADB039B
:100C700003D50E4834F0C8FB2420054A936A6FEA76
:100C800003436FEA1343936210BD1D20D0E700BFFA
:100C900000ED00E033EA04084CEA040860EA0408C6
:100CA0007BEA04089AEA0408C0EA0408DBEA0408BC
:100CB00070B5244C064624480D4634F0A5FBA36AC3
:100CC000D90435D5214834F09FFB1720A36A1A05B3
:100CD00003D51F4834F098FB18201A4CA36A9B05D3
:100CE0000FD51C4834F090FBA16BA36A180407D5FC
:100CF000194834F089FB1EB1A36A23F40043A362B0
:100D00001920104CA36A590503D5144834F07CFB14
:100D10001A20A36ADA050DD5114834F075FB1B20A3
:100D2000084A936A43F47F43936200232B7070BD9B
:100D30001620CBE7A36A9B04F2D50A4834F064FB83
:100D40001C20EDE700ED00E007EB04081EEB0408B3
:100D50009FE9040830EB04084AEB040860EB040840
:100D60007CEB040803EA04085F4B2DE9F0415F685F
:100D70008AB004460025C7F3080685F31188BFF33F
:100D80006F8F02F07F43B3F17F4F06D102F00C0367
:100D9000082B13D1554834F037FB00252C464FF073
:100DA0000008F31E8DF80780092B00F28D80DFE824
:100DB00003F00A81857D8B8B8B8B8B8910074CBF51
:100DC0000C460125EBE7484E494834F01DFB8DF8F1
:100DD0000780F36A9A0704D5464834F015FB0023D0
:100DE0002AE0F36A002B01DA4348F6E7F36A5B0076
:100DF000F5D5424834F008FB7369A26943F4807367
:100E00007361BFF34F8FBFF36F8F32F8023C72698B
:100E100022F480727261BFF34F8FBFF36F8F03F4C0
:100E20007F42B2F55F4F28D1DBB2022B25D121687A
:100E3000334834F0E9FA23689DF80720D2B902AEAE
:100E400004F120072068083454F8041C3246BC42E0
:100E500003C21646F6D1099A002D41D0C2F308010B
:100E600021B96FEA52226FEA4222099202A918467A
:100E7000FFF706FE0AB0BDE8F0811B4B9A6AD2B2BA
:100E800032B10DF1070201212046FFF74DFE0FE0C0
:100E90009A6A12F47F4F05D00DF107010120FFF788
:100EA00007FF05E09B6AB3F5803F98D3FFF7B4FED8
:100EB0000346C1E70DF107020021E5E70DF1070147
:100EC0000020ECE70F4888E717F4F87F0E4B0F4936
:100ED000A6F1100208BF19460D4834F095FA7EE7D6
:100EE0006FF30802C1E700BF00ED00E0C3EB0408A8
:100EF000EFEB040807EC040829EC040838EC0408BC
:100F000058EC040875EC040895EB0408AAEB0408F7
:100F10009AEC0408044B5A6942F010025A615A696B
:100F200022F008025A61704700ED00E0EFF30880FC
:100F3000EFF3098101B57246FFF716FF01BD00BF4F
:100F40000A4880F30888102080F3118808484FF47D
:100F50000461401880F30988EFF3148002210843EC
:100F600080F31488BFF36F8F00F048F840EB022045
:100F700080D902201EF0040F0CBFEFF30880EFF3BE
:100F80000980816911F8021C0229FFD001B572465F
:100F900034F0ECFA01BD00BF40B2002807DB0123AA
:100FA000410900F01F00024A834042F82130704797
:100FB00000E100E040B2013100284FEA0111C9B25E
:100FC00006DB00F1604000F5614080F800137047D7
:100FD00000F00F00014B1954704700BF14ED00E002
:100FE000044B054A23F07F039360BFF34F8FBFF399
:100FF0006F8F70470000000800ED00E008B5FFF7B4
:10100000EFFF0B4AD2F8883023F47003C2F888301F
:10101000EFF3148323F0040383F31488BFF36F8F7B
:10102000FFF7F0FCFFF704FD00F0AAF830F08AFDAE
:1010300000ED00E042F8203C203A009B0749536055
:10104000019B21F001019360029B9161D3604FF0FD
:101050008073D361002302658367704745090008E8
:10106000094A0346906870B113F1160F406E05D01F
:10107000A0F14002934205D3834203D2814228BFAC
:1010800000207047002070478C6A022015460C4AE9
:101090000E4608B50B4B9060426F1A6000F0A0F846
:1010A0002C4686F309880020034B984720460021F0
:1010B00000220023014C20479155030845090008F0
:1010C0008C6A02202C550220014B10221A617047B5
:1010D00000ED00E0054B5A699B689A4204D0044A2F
:1010E000536843F080535360704700BF8C6A0220FE
:1010F00000ED00E0084B9B6883420BD1EFF30583C2
:1011000043B1064B5A6842F080525A605A6A22F440
:1011100000425A6231F0ECBC8C6A022000ED00E023
:1011200014498A684FF030001044EFF3098C80E8CE
:10113000F01F102080F31288BFF36F8F0E4F4FF017
:1011400000664A698A603E60506F0C4C2060906F68
:101150000023936780F3118804B5104600F040F82F
:10116000BDE8044002F1300090E8F01F8CF30988DC
:10117000704700008C6A022004ED00E02C5502202C
:10118000002304481021C2180133682B82F8001391
:10119000F9D1704700E100E008B5EFF30583064A96
:1011A000103B02EBC30152F8330049688847BDE8A1
:1011B0000840FFF78FBF00BF48D604080148006809
:1011C000704700002C550220024B0121024A0348BF
:1011D00000F076B80000082000000220A0DC04081F
:1011E000436E4021044A403B10461360034BC2E962
:1011F0000113012100F06EB83055022000000B15DC
:10120000084AC2F898000B6823F01F03034343F019
:101210001003C2F89C308B6843F00103C2F8A03081
:10122000704700BF00ED00E02DE9F0430E4685B0A9
:101230001F4604464FF00009DFF85480B14523DA19
:101240006068D8B13FB1411E08421BD11F2819D98F
:101250002368194216D12368019334F0ADF9A368CD
:101260000343D0B20393D8F89050C5F30725013D4E
:10127000A84207D801A9FFF7C3FF421C09F10109E1
:101280000C34DBE76FF01502104605B0BDE8F083C3
:1012900000ED00E0044B0522C3F89420BFF34F8F0C
:1012A000BFF36F8F704700BF00ED00E0BFF35F8FAB
:1012B000024B0022C3F89420704700BF00ED00E00D
:1012C00010B5034C01232278FFF7AEFF207010BD4C
:1012D000698E02200B4A08B500231278FFF7A4FF9D
:1012E00010F1160F07D0084A0021D2F89030C3F34E
:1012F0000723984200DB08BDC2F898000130C2F80D
:10130000A010F2E7698E022000ED00E05B4B2DE9B2
:10131000F0435B4D85B0D3F890302C68C3F30723BE
:101320009C4200F2A78000200C26FFF7BFFF8442FA
:101330001AD1544E68460027DFF840913470FFF709
:101340005BFB514C8046514DB84514D13378002099
:101350004A49D1F89020C2F307229342C0F2848018
:101360000020FFF797FF45E0696806FB0011FFF7D3
:1013700047FF0130DBE700984FEA071C00EB07113D
:10138000CB682340B3F5000F4DD00AD8B3F5001F4A
:1013900033D0B3F5800F3BD0B3F5801F13D00137A6
:1013A000D2E7B3F1007F47D0B3F1805F4DD0B3F106
:1013B000807FF4D150F80C30886834F0FDF84A682A
:1013C00040F0887009E050F80C30886834F0F4F888
:1013D00040F088504A6840F4302003903078CDE9DE
:1013E0000123D9F89030C3F30723013B984234D945
:1013F0006FF0150005B0BDE8F08350F80C30886838
:1014000034F0DAF840F088504A6840F40020E4E70D
:1014100050F80C30886834F0CFF840F0C0604A686B
:1014200040F40030D9E750F80C30886834F0C4F844
:101430004A6840F08270D0E750F80C30886834F089
:10144000BBF84A6840F48020C7E750F80C30886841
:1014500034F0B2F84A682843BFE701A9FFF7D0FE8D
:101460003378013333709AE7C1F898300133C1F80B
:10147000A0006EE74FF0FF30BCE700BF00ED00E0DA
:10148000ACDC0408698E02200000F0FF00000211AD
:10149000024808B533F026F8FEE700BFBDEC0408AB
:1014A00008B5024B1B689847002008BD4C55022028
:1014B000034B044A1860937843F00203937070471B
:1014C0004C5502203C0802200649074821F007013C
:1014D000C1F1005208B502F5002233F041FF0020AF
:1014E00008BD00BF17220320505502204FF0FF32E5
:1014F0004FF0FF33014830F0A7BC00BF4C0802207A
:10150000014830F013BD00BF4C08022038B5054635
:10151000FFF7ECFF082108482A4633F064FE044632
:1015200028B925B1054B0C22FFF748FE1A50FFF7EA
:10153000E7FF204638BD00BF505502200C000000D8
:1015400038B504460D46FFF7D1FF082221462B4649
:10155000074833F0CDFE044628B925B1054B0C22CF
:10156000FFF72CFE1A50FFF7CBFF204638BD00BF17
:10157000505502200C00000010B50446FFF7B6FFDE
:101580000348214633F077FDBDE81040FFF7B8BFB0
:101590005055022070B5A0FB015434B92846FFF71E
:1015A000B5FF064640B9304670BD064B0C22FFF72A
:1015B00005FE00261A50F6E72A4621464BF01CFC91
:1015C000F1E700BF0C00000070B541690446867A5F
:1015D0000A4D59B1437ADB0706D42C2303FB06538B
:1015E0005B6A1B689B689847002363612C20214637
:1015F00000FB0650BDE870404AF0CABBE80E02206E
:10160000827A2C21054B01FB02339A6A1B7F801AD8
:101610001B3323F00303B0FBF3F07047E80E022006
:1016200038B52C24827A064B04FB02335B6AD3E97B
:1016300001240C601568FFF7E3FF04FB005038BD80
:10164000E80E02202DE9F04385B0054690461C4681
:10165000684603914AF0ABFDDDE90067EFF31189BD
:10166000102383F31288BFF36F8F6B8B002B41D055
:101670002A8B9A4225D900220023284630F0A6FC66
:101680000446F0B189F31188BFF36F8F039B002BE1
:1016900041D032463B4668464AF0AEFDA27A2C2144
:1016A000254B204601FB023303A95B6A1B681D68BA
:1016B000DDE90023A847606170BB2046FFF784FF87
:1016C00024E0698B4B1E6B8389F31188BFF36F8F06
:1016D0002B7F2A8B1B33AC6A521A23F0030302FBC5
:1016E0000344154B154AEB1A9B105343A3722B7FEF
:1016F000E372CBE789F31188BFF36F8F234642462D
:10170000284630F063FC04460028BFD10024204660
:1017100005B0BDE8F083636101230025E27A04F19E
:10172000180023812946039B656063824BF064FBAC
:1017300063692582E360EAE7E80E0220A38B2EBAF4
:1017400070B50D4C2C2500B970BD037A4668002B8E
:10175000FAD0013BDBB20372002BF5D1C3604360CA
:10176000837A05FB03431B6A13B198473046EAE7C7
:10177000FFF72AFFFAE700BFE80E02200A2800B5AB
:1017800008D90A4B0922FFF719FD1A504FF0FF3014
:101790005DF804FB30235843054BBFF35B8F1B58A8
:1017A000BFF35B8F002BECD00020F1E70C000000B2
:1017B0006455022030231149434308330B4430B5AC
:1017C000BFF35B8F1A68BFF35B8FB2B1541EBFF3D8
:1017D0005B8F53E8005F954204D143E8004CBCF1B5
:1017E000000FF6D1BFF35B8FEAD1012A05D1302378
:1017F000584300230A180B50536030BD5C5502203B
:1018000038B504461546FFF7B9FF01300DD0302337
:10181000074A6343D0184068086015B10C3313447D
:101820002B6030235C43105938BD0020FCE700BF1B
:101830005C5502204FF0FF334FF0FF321C4870B56B
:1018400033F025FF00251B4BBFF35B8F1A68BFF3F6
:101850005B8F7AB1013530330B2DF5D1164B172242
:101860004FF0FF35FFF7AAFC1A50114833F011FF73
:10187000284670BD3024BFF35B8F6C4353E8000FE4
:10188000013043E800010029F8D10C4EBFF35B8F13
:10189000331932515A609A6204F10C0030444AF014
:1018A0009EF904F1200030444AF01EFBDDE700BF42
:1018B000F40D0220645502200C0000005C5502204B
:1018C0002DE9F041302416460F4A444310191151B6
:1018D0004660C362B6B1F368A3B10C4F0C34FFF796
:1018E0006DFC054650F807801319304640F205128A
:1018F00033F0BEFEB8F15F0F04D0EB595F2B08BF89
:1019000045F80780BDE8F0815C5502200C0000001E
:101910002DE9F0410546FFF731FF431C044621D075
:101920003026DFF84C804FF0FF324FF0FF336E432C
:1019300006F10C074744384633F0A9FE08EB0603CE
:101940005A68946844B1DB6A58F8060013F4404FB3
:101950000BD02946A0470446384633F09AFE284665
:10196000FFF728FF2046BDE8F081A047F3E700BF5E
:101970005C5502202DE9F74305460C461A4EDFF868
:101980006C801B4F14B903B0BDE8F083EFF31189ED
:10199000102383F31288BFF36F8F03F0EBFF154919
:1019A000D1E90032C31842F1000008FB03F206FB44
:1019B0000022A3FB0630DB1942EB0002C1E9003232
:1019C00089F31188BFF36F8F042CA146284601923A
:1019D00028BF4FF0040901A94A464D44A4EB09046D
:1019E0004BF0E3F9CEE700BFFDB0B087E62EBB2792
:1019F0002DF304B5C007022030B5C0430A440C4D96
:101A0000914201D1C04330BD11F8013B83EA00048B
:101A100004F00F0455F8244084EA101080EA1313F0
:101A200003F00F0355F8233083EA1010E8E700BFF6
:101A3000E0DC04082DE9F04105460E461746134C3C
:101A4000DFF84C80444508D3124B6A22FFF7B6FBFF
:101A50001A504FF0FF30BDE8F0812368AB4200D050
:101A60008BB9A3683A4631462846984758B1094B86
:101A70000022FFF7A3FB3146C2503A46E3682846EE
:101A8000BDE8F04118471034DCE700BF84DA0408F1
:101A9000A4DA04080C00000073B50D46164669462A
:101AA00001AAFFF7ADFE0446B0B1009B5B69DBB154
:101AB0004FF0FF324FF0FF33019833F0F5FD009BFC
:101AC000204632465B69294698470446019833F020
:101AD000EDFD204602B070BD0923044AFFF76EFBFE
:101AE0004FF0FF341350F4E75F23F6E70C000000DB
:101AF0002DE9FF410D46164602A903AA1F46FFF72E
:101B00007FFE0446E8B1029B5B6A13B34FF0FF32DD
:101B10004FF0FF33039833F0C7FD0B9B204632464E
:101B2000019329460A9B0093029BD3F824803B46ED
:101B3000C0470446039833F0B9FD204604B0BDE821
:101B4000F0810923044AFFF739FB4FF0FF341350AB
:101B5000F3E75F23F6E700BF0C0000002DE9FF412B
:101B60000D46164602A903AA1F46FFF749FE044682
:101B7000E8B1029B9B6A13B34FF0FF324FF0FF3383
:101B8000039833F091FD0B9B204632460193294682
:101B90000A9B0093029BD3F828803B46C04704462B
:101BA000039833F083FD204604B0BDE8F08109239B
:101BB000044AFFF703FB4FF0FF341350F3E75F23B2
:101BC000F6E700BF0C000000F7B507460E461446C6
:101BD000FFF730FE051E18DB3CB97B1E012B04D835
:101BE000022E17D0012E08BF0624F1B201ABA2B21B
:101BF000B8B202F015F8061E0EDA2846764233F027
:101C00004AFD114BFFF7DAFA1E504FF0FF35284618
:101C100003B0F0BD1124E8E7019800234360C366D8
:101C200070304AF06DF8019888304AF05DF9062C62
:101C300002D1019834F0EAFA4FF44043034A019983
:101C40002846FFF73DFEE2E70C00000020DD040817
:101C5000044B162200B5FFF7B1FA1A504FF0FF30CF
:101C60005DF804FB0C0000002DE9F341DDE9088775
:101C70000C46064657EA08010A9D13D014F1690F75
:101C800002D014F10B0F0DD168464AF0B5FADDE928
:101C9000002313430ED114F1690F14BF6FF06804D1
:101CA0006FF00B0464421D4BFFF788FA1C504FF095
:101CB000FF3026E0B7F1FF3F08BFB8F1FF3F0BD080
:101CC0000A22002340463946F7B9FEF7D9FA2B68B5
:101CD000834294BF2B602860D6F8900008B130F0A2
:101CE00025F928680A21A0FB01014AF0A4F92B6814
:101CF0005B00642B28BF64232B60D6F8900030B9BA
:101D0000002002B0BDE8F081FEF70AFBDFE74FF0EC
:101D1000FF324FF0FF3330F097F8F1E70C0000008E
:101D200038B540F203140346A1425BD0B1F5827F7F
:101D30000ED2042922D0B1F5817F2AD0032917D0F1
:101D4000484B5F22FFF73AFA1A504FF0FF3014E089
:101D500045F21B44A14274D045F2214081426BD030
:101D600040F205108142EBD11268C3F890200EE0DA
:101D700090F86C00C0F34000800338BD1268C16E5B
:101D800050044CBF41F0020121F00201D96600204D
:101D9000F3E710688188C9071AD5516892680C6802
:101DA000A2425BD003F17002042522610A68547BD1
:101DB00065F3050454730C68A27B22F02002A27321
:101DC0000C68E26822F4FE12E2600A6814320A60CB
:101DD0008288520703D4DB6E13F0050FD7D06FF063
:101DE0007700CAE711688888C5070FD55268106860
:101DF000C06810F4EE1F02D1D86EC40703D5C8889E
:101E000040F00100C8801068143010608A885007C4
:101E100042BFCA8842F00402CA80DA6E520742BF4B
:101E2000CA8842F00802CA80DB6EDB07AFD5CB88D8
:101E300043F01003CB80AAE7DA6E42F00202DA66C2
:101E4000A5E70023146819461A4633F07BFC6FF0AF
:101E50000043984294BF2060236098E76FF00B0026
:101E60008BE700BF0C000000002B37B5069C054631
:101E70001CD1009300220023134901F079FF05F1E2
:101E8000700049F03DFF05F188004AF02DF804F19B
:101E90007000294649F071FF284634F0B7F904F183
:101EA000880003B0BDE8304033F027BC0ADA5B425B
:101EB0006360E36E43F00403E36604F1700049F0ED
:101EC0002BFFECE703B030BD3F58030813B5B0F863
:101ED0009630002104460022C3F341030091032BF6
:101EE0004FF0000319D134F06EFA042320466360EA
:101EF000E36E43F00403E36633F001FC204601F097
:101F000013FF031E06DA5B42054AFFF757F9135029
:101F10004FF0FF33184602B010BD01F029FFE4E78F
:101F20000C00000037B505460C4611BBB0F89630E2
:101F300000220091C3F34103032B4FF000030DD1A6
:101F400034F041FA031E0CDA5B420F4AFFF736F910
:101F500013504FF0FF34204603B030BD01F008FFAE
:101F6000F0E7EB6E284643F00103EB6633F0C7FB66
:101F7000F1E74C1EFFF722F9034B012C94BF862298
:101F800016221A50E5E700BF0C00000013B5044606
:101F900034F07DF9031E07DA5B420E4AFFF70EF9B3
:101FA00013504FF0FF3007E0B4F89630C3F38113BD
:101FB000023B012B02D9002002B010BD6368002251
:101FC000054920460093002301F0D2FE031EF2DAF9
:101FD000E2E700BF0C0000003F5803082DE9F04382
:101FE000B0F89630914685B00446C3F38112884616
:101FF000032A07D12F4B5F22FFF7E0F81A504FF06A
:10200000FF3038E0C3F34103022B33D0012BC56E00
:1020100009D1FFF7D3F815F0040F264B01D0626801
:10202000ECE77822EAE715F0020543681DBF0026B9
:102030000027214D47F2305608BF0027012A1DD145
:102040000093002200231D4901F092FE002805DACA
:102050004342FFF7B3F8174A1350D0E763684A4684
:102060004146204602932B46CDE9006734F079F9CA
:102070000028EDDB002005B0BDE8F08302934A465E
:102080002B46CDE9006734F06CF9031E03DA5B429E
:10209000FFF794F8DFE7E36EDB07EBD46368002219
:1020A000064920460093002301F062FE031EE1DA98
:1020B000EDE700BF0C000000D15803083F580308AB
:1020C00013B5B0F89630044603F0C003C02B08D116
:1020D0000E4B5F22FFF772F81A504FF0FF3002B03C
:1020E00010BD34F027F9031E05DA5B42074AFFF7FB
:1020F00065F81350F1E700230022054920460094BB
:1021000034F061F9031EF0DB0020E8E70C0000006A
:10211000691E00082DE9F04F16468FB00A224FF0D5
:10212000FF384FF0FF3904460B925A060D46189FB0
:10213000CDE90C8903D4C36E13F0020328D000222A
:102140000023CDE90C2308A84AF031F808A8DDE9FE
:102150000C23DDE908894AF02AF8DDE90823CDE9F6
:102160000623E36EDB071AD4636800222849204661
:102170000093002301F0FCFD031E10DA5B42254AA8
:10218000FFF71CF813504FF0FF300FB0BDE8F08F91
:102190000CAA052101F0C0FE1F4A0023D3E74FF02F
:1021A000000A0DF12C0B6168DDE90C2337B30491B3
:1021B00020462946CDF804A0CDE90223199B3246DA
:1021C00000933B4634F088F90028DEDA0146CDF86A
:1021D00008B02046DDE90C23CDE9002342464B46FA
:1021E000FFF742FD0130CED008A8DDE906234AF012
:1021F00003F8DDE90823CDE90C23D4E7CDE900237A
:1022000002913B4632462946204634F007F9DBE787
:102210003F5803080C000000A08601002DE9F0479C
:102220004FF0FF338CB015464FF0FF3204460E4698
:10223000CDE90A230A236A06099303D4C36E13F077
:10224000020339D000220023CDE90A2306A8002783
:1022500049F0ADFF06A80DF1240ADDE90A23DDE906
:10226000068949F0A4FFDDE90623CDE90423DDE971
:102270000A23314620460297CDE9002300232A464F
:1022800034F005F900281EDA0146CDF808A02046F2
:10229000DDE90A23CDE900234B464246FFF7E4FC83
:1022A000431C10D006A8DDE9042349F0A5FFDDE9B1
:1022B0000623CDE90A23DAE70AAA052101F02CFE5C
:1022C000024A0023C2E70CB0BDE8F087A0860100F7
:1022D000F7B5B0F8963004460E46174603F0C00333
:1022E000C02B09D13F4B5F22FEF768FF1A504FF019
:1022F000FF35284603B0F0BDC36E5A0704D56268A7
:10230000FEF75CFF374BF1E79D0710D44FF0FF332A
:102310004FF0FF326946CDE9002333F004FB031E82
:1023200005DA5B422F4AFEF749FF1350DFE7002230
:1023300004F1700000232FF049FE044620B9294B18
:102340000B22FEF73BFFD1E7FFF774FA051E06DA12
:10235000204633F0D4F9204601F0E6FCC7E704F14B
:10236000700049F023FDA8B190F83230990711D5DB
:10237000E36E284643F00103E36633F08CF9204610
:1023800033F0BDF9204601F0CFFC164B7122FEF769
:1023900015FFABE7B4F896305A0508D5114B7122FA
:1023A000FEF70CFF1A50284633F075F9D0E723F4F6
:1023B00000733A4631462046A4F8963033F080F94F
:1023C00040B1284633F067F9064B8622FEF7F6FE49
:1023D0001A50BDE74FF44043034A21462846FFF711
:1023E0006FFA86E70C00000020DD04082DE9F04FAD
:1023F00090468DB099464FF0FF324FF0FF330D46B7
:102400000446CDE90423169B5906DDE9176703D47A
:10241000C36E13F002032FD000220023CDE9042362
:10242000169B703413F00203019339D0102200215F
:1024300007A8DDE904AB4AF0DFFC04230B948DF818
:10244000293001215B46524607A830F0B7FE00F163
:102450000B0103460B2919D840F68102CA40D20766
:1024600014D5204649F09EFC0446F8B9564B0B2281
:10247000FEF7A4FE1A500EE004AA042101F04CFD60
:1024800004A9204633F04FFA031EC9DA5B424E4AD4
:10249000FEF794FE13504FF0FF300DB0BDE8F08F03
:1024A000DDE9042320462FF091FDDDE7D0E903BAF2
:1024B000AEB1A7B134F042FA94F83230C3F302134C
:1024C00033808623C4E903BA3F4AFEF777FE1350F0
:1024D000019B002BDFD1204634F0CBF9DBE7002D48
:1024E00041D0EB680BB1AB6823B9374B0C22FEF738
:1024F00065FEBFE720464F4634F0D4FA81450646D4
:102500004FF0000328BF0746B846B8F1000F0FD1BF
:10251000B14503D2AB6943F02003AB612B69002BBB
:102520004DD0696971B30F2947D8C5F8148029E0E7
:10253000AA68D158D01821B9234B1622FEF73EFEC7
:1025400098E7426820460393424528BF42460292DC
:1025500034F04EFA039B029A083308B16923B3E7BB
:10256000A8EB0208D1E720464F4634F09BFA81459C
:102570000646414628BF074620463A4634F038FA18
:102580000028EBD1019BE3B9204634F072F9169B89
:1025900013F0200F0CBF384630467EE790440732D8
:1025A00022F00700103018448842BED822F00702FB
:1025B00013441A68002AF1D1B7E71944F9E76B61AF
:1025C000E0E7C4E903BAE2E70C0000002DE9F04FB0
:1025D00090468DB01E464FF0FF324FF0FF330D4650
:1025E0000446DDF858A0CDE90823B0F89630D907A5
:1025F0000ED5C3F34103022B0ED080235A4A4FF06D
:10260000FF36FEF7DBFD135030460DB0BDE8F08F0E
:102610000923F3E78623F1E71AF0400F02D1C36ED6
:102620009A0715D500220023CDE90823002EEBD010
:102630000AF4807BDDE90879CDE90586ADB1B8F112
:10264000000F12D1EB685BB96FF015004342D5E77C
:1026500013F00503EAD108AA042101F05DFCE5E7C7
:10266000AB681A685B68059207934FF0000802A8F0
:10267000CDE90A79DDE90A2349F099FD4646DDE90D
:102680000223CDE90023069B73B3E36E13F004002D
:1026900014D060684042002820EAE076D6DB20466D
:1026A000DDE9171233F00CF80028B3D11AF0020F4D
:1026B000AAD13146204633F039FFA5E7DB07EAD43B
:1026C00057EA090312D1D5B9534606AA05A92046EF
:1026D00033F038F8831950EA030643D157EA090763
:1026E0001AD0BBF1000F35D13046D4E70AA92046F5
:1026F000CDE90A7933F017F90028E4DACBE753463D
:1027000007AA05A9204633F01DF8064450EA06033F
:1027100005D157EA090302D16FF00A0096E7AA68CB
:102720004FEAC80352F83810014405910699091A76
:10273000069107990029D4D108F10108E968884574
:10274000D2D00833D118D2584B68059207930AB1FA
:10275000002BD4D10AA8DDE9002349F04DFDDDE9C5
:102760000A7990E71E46BCE70C000000F0B585B082
:102770001C461346DDE90A670AB3B0F89620C2F397
:102780008112951E012D08D80A4600940021CDE93A
:102790000167FFF72BFE05B0F0BD012A07D10A46FD
:1027A00000940021CDE90167FFF710FFF3E7054B27
:1027B0008622FEF703FD1A504FF0FF30EBE710467C
:1027C000E9E700BF0C000000F0B5B0F8963085B026
:1027D000C3F3811C644699B18E68D6B10023CF68DB
:1027E00004361D46AF4218D1023C012C1AD80C1DEC
:1027F00002940C68CDE900240022FFF7F7FD06E003
:1028000016230E4AFEF7DAFC13504FF0FF3005B0E6
:10281000F0BD0C23F5E78623F3E756F835E00135E4
:102820007344DFE7BCF1010FF5D10C1D02940C6875
:10283000CDE900240022FFF7C9FEE8E70C00000004
:10284000062938B514461A46049B3DD008DC0029F9
:102850003FD001290ED02A4B6D22FEF7AFFC17E0C6
:102860002929F8D1122C47D0132C47D0102CF2D1A3
:102870000F2135E0262C24D00CDC032C17D0042C9F
:10288000E9D11B68042B0FD01D4B1622FEF796FCD6
:102890001A502EE0272CDED11B68042BF4D1B0F89F
:1028A0009630C3F3C20300E04368136007E0B0F85A
:1028B0009610C1F381111B68042BE5D11160002033
:1028C00038BDB0F89410F6E7012CC4D16FF07A004F
:1028D000F6E7022C03D0212CBDD10D2100E0102100
:1028E00001F01AFB031EEADA5B42054AFEF766FCBA
:1028F00013504FF0FF30E3E70E21F1E71621EFE729
:102900000C000000062938B5154604461A46049BFB
:102910006AD008DC00296CD0012923D03F4B6D22FE
:10292000FEF74CFC2DE02929F8D1103D0A2DF5D8F1
:1029300001A151F825F000BF0B2A0008112A000858
:10294000152A0008192A00081D2900081D29000859
:102950001D2900081D2900081D2900081D2900083F
:10296000972900080D2D16D0192DD7D1B0F8961043
:10297000C1F3C2000138012805D9284B6A22FEF7AD
:102980001DFC1A501AE013B14AB1107828B921F48D
:102990000061A4F89610002038BD082B04D01F4B0E
:1029A0001622FEF70BFCECE7104600F0E5FE031ED6
:1029B00007DA5B42194AFEF701FC13504FF0FF3073
:1029C000EAE700F07BFD20B9144B1322FEF7F6FB7B
:1029D000D7E7B4F8963043F40063A4F8963000F0DB
:1029E0001FFE84F89800D6E7012D97D16FF07A008A
:1029F000D2E7022D07D0212D90D10D2101F060FAF0
:102A0000031EC8DAD5E71021F8E70F212046F5E7C5
:102A10001321FBE70E21F9E71621F7E70C00000070
:102A200000B5B0F89630C3F38110032813D0B1B1CC
:102A3000AAB1DA0511D5012811D1C3F34103022B44
:102A400014BF80231623074AFEF7B8FB13504FF03C
:102A5000FF305DF804FB5F23F5E78023F3E71623DF
:102A6000F1E700BF0C000000044B792200B5FEF72F
:102A7000A5FB1A504FF0FF305DF804FB0C0000007E
:102A8000014BDB68184700BF20DD040813B504467E
:102A900033F0FDFB031E08DA5B420A4AFEF78EFBA9
:102AA00013504FF0FF3002B010BD6368002206499A
:102AB00020460093002301F05BF9031EECDB0020AD
:102AC000F1E700BF0C000000D3590308F0B585B052
:102AD00006460F461546FEF7ADFE041E10DB6ABA29
:102AE00003ABF9B292B2B0B201F09AF8051E0CDA5B
:102AF00020466D4232F0CFFD164BFEF75FFB1D50B6
:102B00004FF0FF34204605B0F0BD0398002343602A
:102B1000703049F0F5F803980F490022436800939C
:102B2000002301F025F9051E03990BDA08466D42D2
:102B300001F0FAF8204632F0AEFD064AFEF73EFB01
:102B40001550DDE74FF44043044A2046FEF7B8FE37
:102B5000D8E700BF0C000000D359030864DD040867
:102B60002DE9F04389B04FF0FF384FF0FF390446AC
:102B7000109F0D461646CDE9068957B9184B7922A4
:102B8000FEF71CFB1A504FF0FF33184609B0BDE8A2
:102B9000F0835B0603D4C36E13F002031BD0002244
:102BA0000023CDE906236368294620460493DDE926
:102BB0000623CDE90223002332460193119B0093A3
:102BC0003B4633F089FC031EDFDA5B42044AFEF722
:102BD000F5FA1350D7E706AA052101F09DF9E2E7BF
:102BE0000C00000070B54FF0FF33154686B04FF073
:102BF000FF3204460E46CDE904236B0603D4C36EB0
:102C000013F002031AD000220023CDE90423DDE9EA
:102C1000040100232A46CDE90001029331462046F3
:102C200033F035FC031E06DA5B42074AFEF7C6FAAC
:102C300013504FF0FF33184606B070BD04AA0521AB
:102C400001F06AF9E3E700BF0C0000002DE9F04F46
:102C50001C468BB00F4692464FF0FF334FF0FF32C9
:102C600061060546159ECDE9002303D4C36E13F01B
:102C700002032DD000220023CDE9002314F002042A
:102C800005F1700B30D01022002105A8DDE9008984
:102C90004AF0B2F80423CDF824B08DF82130012198
:102CA00042464B4605A830F089FA00F10B020B2A88
:102CB00004D840F68103D340DA070ED443425F4A7A
:102CC000FEF77CFA13504FF0FF300BB0BDE8F08FE9
:102CD0006A46042101F020F9D0E7584649F062F82D
:102CE000804648B90B23EAE7DDE9002358462FF078
:102CF0006DF9F5E76923E2E7D0F808900020B9F113
:102D0000000F50D18245394628BF82464046524680
:102D100033F06EFE0028EDD1149B002B5DD0002E09
:102D20005BD0142249460DEB02004AF065F895F994
:102D3000980000F0C3FB054600284ED00323ADF8F1
:102D4000143000F06DFC069098F833305B0730D5F6
:102D500098F8212008F1220108A8082A8DF81F20E0
:102D600028BF08224AF021F8B8F830305BBAADF835
:102D700016302B68002B5DD01B7C032B08D1012360
:102D800008F1280205A92846ADF81C3032F045FEAE
:102D9000326805A91498142A28BF14224AF005F8AD
:102DA0001423336019E0B9F81030D9F804901844AE
:102DB000A5E72B68002B3DD01B7C032BE8D14046B8
:102DC000D8E9039733F0BAFDD8F80820D36813B1D7
:102DD000128A0D2A07D8C8E9039740463CBB33F056
:102DE00048FD504671E706228DF81F20D3F80600F3
:102DF000089028465A89ADF82420597B1A7B42EA6C
:102E0000012205A9ADF816200122ADF81C201A6890
:102E10009B88CDF80E2003AAADF8123040F2036370
:102E2000ADF80C3032F0F9FDC8E90397B0E733F0A4
:102E300085FDD6E799F80030FFDE00BF0C000000EA
:102E400013B5049C43B13CB1084CE46AA446019418
:102E500002B0BDE810406047054B1622FEF7AEF900
:102E60001A504FF0FF3002B010BD00BF20DD040843
:102E70000C00000010B4024C246BA44610BC604748
:102E800020DD04082DE9F843074632F00AFE0A8ED9
:102E90000C46D0F8088092FA92F9B8F1000F5BD096
:102EA000D8F81C30002B5AD091F83230C3F30213FB
:102EB000032B07D14B69DBB3B3F8963003F0C003A3
:102EC000802B35D1002A4AD094F829304BB9254BB4
:102ED0001A68C4F829209A889B79A4F82D2084F8D0
:102EE0002F304FF47A7200230E21204601F06AF849
:102EF000054620B96FF00B052846BDE8F88350F869
:102F00000C6F0E2132F09FFBD4F82A302046294660
:102F10003360E38DB380D4F82230C6F80630E38CFA
:102F2000A6F80C90738133F0CBFC204633F006FDFD
:102F30003846D8F81C30214632F0B3FD9847054694
:102F40000028D9D1A3681BB9204633F092FCD3E7FF
:102F50001A8A5B681544F6E76FF00105CCE76FF05D
:102F60008505C9E7C2EC04082DE9F0478F680546DE
:102F70000C46FB6813B90220BDE8F0873A8A0D2A97
:102F8000F9D9D3F8062003202A3141F8082C5A89B0
:102F900001F80A0C21F8042C062201F8092C1E68FD
:102FA000C4F82A609E8894F82AA0E68584F8280050
:102FB000BAF1FF0F84F829209B891FFA83F95BBAC5
:102FC0001FFA83F823867DD194F82B30FF2B79D11B
:102FD00094F82C30FF2B75D194F82D30FF2B71D144
:102FE00094F82E30FF2B6DD194F82F60A6F1FF03DB
:102FF0005E425E41FDB1286840B1427C062A1AD18A
:10300000123049F008FFB0FA80F04009B6B10E2145
:1030100007F10C0032F01DFBA368ABB92B4B2C4A17
:103020002C49934212D394F83230012023F07003DC
:1030300084F832301CE00020E8E728461AF0010F3F
:10304000E5D10028E3D196E75B68E6E7988940453B
:1030500004D15868884201D19E680EB91033E0E768
:10306000224641462846B047002885D0022882D013
:1030700048F6886399453FF47FAF94F83230C3F344
:103080000213012B15D1A368DB685B885BBA9BB286
:103090002D2B3FF671AFA268002A3FF46DAF118A65
:1030A000994232BF5B1A13820023526838BF9BB229
:1030B000F2E7022B7FF460AFA368DB689B885BBA02
:1030C0002833E4E7002DB8D0002694E784DA04081A
:1030D00084DA0408A80F022030B58FB004460D46EC
:1030E00032F0E4FC43050BD5302322460620064986
:1030F000009302AB8DF8085000F024F80FB030BDFB
:103100006FF08500FAE700BF0000905038B501234A
:1031100005460B4932F0C0FC037604464561043095
:1031200048F097FE284632F0C1FC430542BF237E9B
:1031300043F004032376637E43F00203637638BDD5
:10314000F35A03082DE9F04707468CB08A461C461F
:103150009046002A00F010811368002B00F00C81CB
:103160001E68302200216846D6F808906D4649F066
:1031700043FEB9F1000F00F0FC80D9F8103023B9FC
:103180006FF085000CB0BDE8F08714B96FF0150042
:10319000F8E7149B302BF9D1013F794B4AEB030A36
:1031A000102F7AF1000AF1D20F2FEFD801A353F8B4
:1031B00027F000BFF531000827320008613200080F
:1031C000AF320008D7320008053300088D310008FF
:1031D0008D3100088D3100088D3100088D310008D7
:1031E0008D3100081F3300083D3300088D31000881
:1031F000573300080021404632F0DCFC002876D12D
:1032000020686A46A38800903046ADF80430D9F8AB
:10321000103098470028B5DB03230622214640469C
:1032200032F0FCFDAEE74FF40071304632F0B4FCF2
:103230000028A5D023797BB1023B012BA6D92068B9
:103240002B46616803C3A06801211860D9F81030CB
:103250002A463046984795E7A368642BEFD995E74F
:103260004FF40031304632F097FC002888D0637963
:10327000012B8BD02379032B0BD1424B226A9A422C
:1032800084D8D4E904128B424FF000039341FFF439
:103290007DAF2A4604F130072068083454F8041C36
:1032A0001346BC4203C31A46F6D10221CEE74FF4BF
:1032B0008021304632F070FC00283FF461AF237962
:1032C000042B3FF463AF20686B46616803C3A068BA
:1032D00003211860BAE74FF40021304632F05CFC5D
:1032E00000283FF44DAF404632F070FC10B16FF053
:1032F0000C0047E720686B46616803C3A06804219F
:103300001860A3E74FF48061304632F045FC002896
:103310003FF436AF237805218DF8003096E740461C
:1033200032F054FC0028E2D120680921A288A37958
:103330000090ADF804208DF8063087E74FF4801137
:10334000304632F029FC00283FF41AAF23780A21D6
:103350008DF800307AE74FF48051304632F01CFC93
:1033600000283FF40DAF61686B46206803C3072156
:103370006CE76FF0010005E700239B68FFDE00BFEC
:10338000FFFF6FAFFFC99A3B002307B50246044910
:103390000120009300F0CAFB03B05DF804FB00BFFE
:1033A000000090D0002307B5024604490220009394
:1033B00000F0BCFB03B05DF804FB00BF000090D040
:1033C00038B50D46044680B132F0AAFC43070FD54C
:1033D0000A4B204632F091FC83420CD1294620460C
:1033E000FFF77AFE00EAE07038BD6FF01500FBE7EA
:1033F0006FF08500F8E70020F6E700BFA80F022075
:103400002DE9F3410368002104469F7E32F095FCCC
:1034100070BB02252368002B4BD0264620469D76A4
:1034200032F0C0FC56F8108B48F0BFFE00230A2291
:10343000FCF776FFC8E90801304632F0BAFC236891
:103440009B7EAB4235D1062D28D1062F31D02046A8
:10345000082132F07EFC0023224602200093164908
:1034600000F064FB204602B0BDE8F04132F058BCE9
:10347000204632F047FC48F0F8FA68B109212046AE
:1034800032F05BFC0028C4D00A21204632F055FC03
:10349000C0F10605EDB2BDE70325BBE7062F08D155
:1034A0002046082132F068FC0023224601200093C8
:1034B000D5E702B0BDE8F081000010D0002809DD9A
:1034C000431E3C22044802FB0300044B984228BFE1
:1034D0000020704700207047400F02207C0F022020
:1034E00008B50246064B07498B4202D30023184613
:1034F00008BD184632F006FC8242F8D03C33F3E7B0
:10350000400F02207C0F0220054B064A934205D053
:10351000054A1068002808BF184670470020704709
:10352000400F02207C0F022080570220F8B54FF098
:10353000FF33054617460E484FF0FF320E4632F075
:103540002FFC0C4B1B680BB11C6823B90848BDE865
:10355000F84032F02EBC5B683A4631462846984720
:103560001CB1226823461446EFE72246FAE700BF63
:10357000080E0220785702200023F7B504460D46B6
:10358000CDE90033002943D0244B1B6853B195F893
:1035900029202A31062A3BD80DF102008DF801209E
:1035A00049F003FC092120466F6932F0C6FB88B35D
:1035B0000D21204632F0C1FB38B94FF0FF324FF0F9
:1035C000FF3304F1240032F0EBFB2046294632F0B1
:1035D00094FB4368204698470D210646204632F06A
:1035E000ACFB18B904F1240032F0E3FB002E02DA40
:1035F000284633F03EF91FB13146384632F087FB9A
:103600009DF8013023B1324669462046FFF78EFF10
:1036100003B0F0BD6FF07206EAE700BF78570220F2
:10362000074B984208D3074A904205D2C01A064B6E
:1036300080105843013070474FF0FF30704700BF93
:10364000400F02207C0F0220EFEEEEEEF8B50546AB
:103650000E46054C054FBC4200D3F8BD204631460E
:103660003C34A847F7E700BF400F02207C0F022040
:1036700037B5054632F096FB0021284632F05DFB57
:1036800050BB284632F039FB044680B1846874B1DF
:10369000284632F037FB48F0E8F900B3284601210C
:1036A00032F02BFB836828469847041E0DDB00216F
:1036B000284632F04EFB002308202A460949009391
:1036C00000F034FA2846FFF79BFE05F1100032F0B7
:1036D00070FB204603B030BD6FF07704F5E76FF064
:1036E0000504F2E7000010D00A4A08B5034632F09C
:1036F00004FB824208D14BB11B683BB19B68987EAA
:10370000431E5842584108BD0020FCE700239B7E21
:10371000FFDE00BFA80F02202DE9F0410D4606464E
:10372000E8B1E1B10846FCF727FE08281AD8104F87
:10373000441CDFF84080474507D322462946301D08
:1037400049F033FB0020BDE8F081B74205D02246A6
:103750002946381D49F05FFB38B13C37EBE76FF085
:103760001500F0E76FF05A00EDE76FF07700EAE739
:10377000400F02207C0F022070B50546B0B10D4C01
:103780000D4EB44202D36FF0010070BD2846FCF725
:10379000F3FD29460246201D49F05CFB20B9204676
:1037A000BDE87040FFF73CBF3C34EAE76FF015001E
:1037B000EBE700BF400F02207C0F02202DE9FF4104
:1037C0002D4C4FF0FF322D4E4FF0FF332C4F2D4D2F
:1037D0002D4832F0E5FA33F03BFAB44205D32A48DB
:1037E00004B0BDE8F04132F0E4BA00222046C4E95A
:1037F0000122227332F086FAD0F80880B8F1000F67
:1038000014D0D8F800308BB104F1100048F0E7F97B
:1038100004F1240048F0E3F9D8F800302046984736
:1038200094F8383023F0030384F83830237983B9CF
:103830002046FFF759FF70B1144A1368591C1160F4
:10384000134A092101A830F095FE01A92046FFF78F
:1038500063FF3C34C1E7204632F04FFA874205D17E
:103860000C4A1368591C11600B4AEAE72B685A1C72
:103870002A600A4AE5E700BF400F02207C0F0220C1
:10388000A80F02206C570220080E02207457022055
:10389000CAEC040870570220D1EC0408D7EC0408E5
:1038A00038B5074C074DAC4200D338BD0321204644
:1038B00032F043FA10B92046FFF7DAFE3C34F2E763
:1038C000400F02207C0F02202DE9F041474F86B0C7
:1038D0000022002302A946482EF054FA054610B1F2
:1038E00006B0BDE8F081434C4FF0FF32DFF80881AD
:1038F0004FF0FF3341482EF0A7FA44450CD3404D1A
:103900002C681CB126684FF0000824BB3B4832F0FD
:1039100028FB2FF069F8DBE7DDE90201D4E9002399
:1039200081EA03063E4214D1C1F31306064309D0CF
:10393000C3F31306164305D00B400240C3F3130331
:103940001A4306D0E368049ACDE900530023A66821
:10395000B0471034D1E7DDE90223D4E9021083EA4D
:10396000000C1CEA070F2CD1C3F3130C52EA0C0C09
:103970000CD0C0F3130C51EA0C0C07D003EA000C76
:103980001140CCF3130C51EA0C011AD0000161680C
:1039900024D5886918B1DDF810C0604511D1C4E99B
:1039A0000223049B8B612368B8F1000F0ED16A6873
:1039B0002B60944200D16B600023606823602EF07E
:1039C00037FB8EB1336834461E469EE7C8F8003098
:1039D0006B689C4208BFC5F80480EDE70498A046D8
:1039E000009020468847ECE73346ECE70000F037CC
:1039F000580E0220A4DA0408A4DA0408300E0220CB
:103A0000845702200C4B00211A6802B97047824289
:103A10000FD1026839B959681A60884200D15A60DA
:103A20000023036070470A605A68904208BF5960DB
:103A3000F6E711461268E8E78457022070B50022C5
:103A400000230021164C1748174DC4E900230B46EC
:103A50000A46A8420CD391B1C4E90032134909685F
:103A600081B10868002579B90DB1C4E9003270BD93
:103A7000D0E9006110300A4333430121E9E70B46E6
:103A80000A46EBE70846EDE7D1E902512B430A432A
:103A900020B10568014628460125E4E70546F9E717
:103AA000D04F0220A4DA0408A4DA040884570220C4
:103AB00010B504464FF0FF324FF0FF330D482EF0A3
:103AC000C3F92046FFF79EFF0B4B1A6822605A6825
:103AD0001C6002B95C60094BD4E90212D3E90040D2
:103AE000214302430348C3E90012BDE8104032F00D
:103AF00038BA00BF300E022084570220D04F022077
:103B000010B504464FF0FF324FF0FF3306482EF059
:103B10009BF92046FFF776FFFFF790FF0248BDE8CC
:103B2000104032F01EBA00BF300E02201B4B70B5A1
:103B30000C461646C1F301720546D3E9001332EA7A
:103B400013722AD1C4F3065232EA135225D124EA61
:103B5000030320EA0101C3F3130319431DD14FF0FE
:103B6000FF324FF0FF330E482EF06EF90D4B00225E
:103B7000194643F80C5C41F80C29C1E9014664225E
:103B80000023094848F01CF8054832F0EAF90749D3
:103B90000748BDE8704048F078B970BDD04F0220AA
:103BA000440E0220CC4F0220580E02206008022052
:103BB000D84F02207FB5FFF741FF00230948CDE928
:103BC0000433094B039348F070F903AB4FF4507280
:103BD000064900934FF0FF3302482EF0C3FB07B0B5
:103BE0005DF804FBD84F0220DDEC040840A702205A
:103BF0000A4B00211A4610B5B3F89640E40706D5E3
:103C00005C6C844203D19C2303FB012010BD013175
:103C10009C330A29F0D10020F8E700BFA457022006
:103C200003282DE9F0478A4690461F4611D009D84F
:103C30000138012894BF6FF05F046FF069042046DB
:103C4000BDE8F087042814BF6FF069046FF05F04CB
:103C5000F5E78B1E012B5BD8002F5CD04FF0FF33B4
:103C60004FF0FF322D4800252EF01CFA2C4B9946C0
:103C7000B3F8964014F001040DD001359C330A2DA1
:103C8000F6D16FF0010425482EF0D2F9002C18BFB0
:103C90006FF00104D3E79C222146554309EB05064A
:103CA000304649F0A9F8FFF72FFCB8F1060FE8D02D
:103CB000FF230121A6F8964086F89830BFF35B8F6A
:103CC000184B2B4453E8002F43E800100028F9D18B
:103CD000BFF35B8FB6F89600A6F8948040EA8A108E
:103CE00040F01800A6F8960005F154004FF0FF329E
:103CF000484448F05FF805F10C00484447F06FFF76
:103D0000B6F8963043F00103A6F896303E60BAE765
:103D10006FF06A0493E76FF0150490E78C57022068
:103D2000A4570220AC57022070B50446D8B10F4BFF
:103D3000984218D303F5C363984214D200F10C06DD
:103D400000254FF0FF324FF0FF33304632F03AF9A2
:103D500030462565C4E9125532F036F9204632F076
:103D600063FA284670BD6FF01500FBE7A4570220E8
:103D70002DE9F04F1F46B0F8963093B00446DB07AC
:103D80008A469046DDF870B040F1948000F10C0650
:103D90004FF0FF324FF0FF33304632F013F9B4F8F2
:103DA0009650C5F3C205032D40F081800DF1200926
:103DB00014220021484649F01FF894F99800FFF7B3
:103DC0007DFBE26A03469AB9B4F89420ADF834500A
:103DD00052BAADF8362010B1FFF722FC0346142288
:103DE0000DA920460E9332F052FA0546002840D124
:103DF0000323E16AADF82030636A0993638CADF860
:103E0000223094F82B308DF82B3049B111F8012C69
:103E10000BA8082A8DF82B2028BF082248F0C5FFE0
:103E2000606CC4F848A058B300235A462349009355
:103E3000CDE9019300F06AFB0028054619DB58EA3A
:103E4000070316D0543420462EF052F9304632F093
:103E5000BBF842463B4620462EF024F90B304FF08B
:103E6000FF324FF0FF33304608BF6FF0730532F07A
:103E7000A9F8304632F0A8F8284613B0BDE8F08F14
:103E800004F14403B4F89610CDF80090C1F3C202D7
:103E9000C1F38111CDE905B3084BCDE90100CDE9AE
:103EA00003430346B4F8940000F010FAC4E76FF03F
:103EB0006A05DEE76FF00805DEE700BF675F03080D
:103EC00038B50D4610B3134B98421FD303F5C363A7
:103ED00098421BD200F10C044FF0FF324FF0FF3339
:103EE000204632F06FF8132D09D8002D0CBF0025A5
:103EF0006FF08505204632F067F8284638BD153D3D
:103F0000032D94BF6FF085050025F3E76FF01505CD
:103F1000F3E700BFA45702202DE9F0410C461646F6
:103F20001D468046A8B31C4B984232D303F5C363A9
:103F300098422ED200F10C074FF0FF324FF0FF33C2
:103F4000384632F03FF8142C09D005D8013C122C29
:103F500015D86FF0850413E0153C032CF8E7B8F88A
:103F600096301B0512D598F99800FFF7A7FA10B103
:103F7000006800B1008B30600DB104232B60002479
:103F8000384632F021F82046BDE8F0816FF0690430
:103F9000F6E76FF01504F6E7A45702204FF0FF3262
:103FA0000121014847F006BF8C5702200146014815
:103FB00032F044BCE80E02200146014832F03EBC1B
:103FC000140F022010B404460846054964688C4268
:103FD00002D110BCFFF7EABF10BCFFF7EDBF00BF76
:103FE000A80D022073B5044616461D4647F080FF13
:103FF00008B1002635462B46324601A920462DF051
:1040000029FE0546B8B938220146019848F0F4FE69
:104010000A4A019801239442C361446005D180F8A3
:10402000343032F08BFC02B070BD054B9C4208BFAF
:1040300080F83450F5E70020F5E700BFC40D0220FA
:10404000A80D02202DE9F743DDE90A6705469046F1
:104050001C46894629B923B990F8323013F0700F05
:1040600040D047F045FF08B100260027284632F02F
:1040700031FC00283AD195F8323013F0700F35D06A
:10408000012C35D0A4F13A02534253419B00AA6956
:104090004B447AB312686AB35168194CA14229D1D2
:1040A000118B0E31091A6C68164842469942CDE9C7
:1040B000006728BF1946144E144BB44218BF184667
:1040C00032F003FB0146B8B1284632F03DFCB8F1AE
:1040D000000F07D0A86841460C3031F0B0FA2846EE
:1040E00032F02CFC002003B0BDE8F0830023CEE7C3
:1040F0000423CCE71946D5E76FF00B00F3E700BFC8
:10410000A80F0220140F0220C40D0220E80E022086
:104110002DE9F743DDE90A45064690460F4639B9D1
:1041200032B990F8323013F0700FC3F3021026D07A
:1041300047F0DEFE08B100240025B06950B94346BF
:10414000002239463046CDE90A4503B0BDE8F043C8
:10415000FFF778BF72680C4B9A42F0D103688BB1BD
:104160005B68D3F81090B9F1000FE8D043463A46A7
:104170003146CDE90045C84710F1860FDFD003B0C6
:10418000BDE8F0831B69FFDEC40D022030B585B0A9
:10419000DDE90845009313460A4601460348CDE988
:1041A000024532F0E2FB05B030BD00BFC40D022075
:1041B00030B585B0DDE90845009313460A4601464F
:1041C0000348CDE9024532F0D0FB05B030BD00BF59
:1041D000A80D0220A02208B5034B02FB003047F0D7
:1041E000CCFD002008BD00BF785002200828024BFB
:1041F00028BF0020185C7047BE59050810B588B06C
:104200000F4C204647F07CFD4FF0FF324FF0FF335C
:104210000C4904F118000094CDE906230023CDE9F0
:104220000323CDE901334FF4C062074B2EF0E2F9CE
:1042300020B108B0BDE8104047F016BF08B010BD6F
:1042400078500220C0AA0220316C0308014608B54C
:1042500058B1084BBFF35B8F1B68BFF35B8F33B163
:10426000054847F08AFD002008BD0120FCE7022038
:10427000FAE700BFBC5D0220D00E022002460B46CA
:1042800001482DF0E1BD00BFE00D022001482DF0F6
:104290004DBE00BFE00D02204022002110B50446B3
:1042A00048F0AAFD4FF0FF304FF0FF31FFF7E6FF77
:1042B000054B1A6822605A681C6002B95C60BDE850
:1042C0001040FFF7E3BF00BFC85D02202DE9F04FAB
:1042D00085B01D4682469146BDF84030119CBDF820
:1042E0003C60019100934CB394F99800FFF7E6F815
:1042F0000746204631F086FF83464FF0FF304FF0EF
:10430000FF31FFF7BBFF614B1B6833B1009AD3F855
:10431000008051BA8AB202929BB9FFF7B7FF4FF003
:10432000FF304FF0FF31FFF7A9FF594B1F68002FF7
:104330004ED16FF00108FFF7A9FF36E02746A346EC
:10434000DBE7198F514518D193F83B10494514D13B
:104350000E9A92B993F83C1048070ED4588B029AE3
:1043600090420AD14DB9890707D4BBF1000F0CD197
:1043700071BAD88889B2884211D0B8F1000F25D01F
:10438000D8F8001043468846C6E7186B0028EFD0DF
:10439000039331F037FF039B0028E9D0EDE71B6B57
:1043A0003BB96FF06F08FFF771FF404605B0BDE8FD
:1043B000F08F002FF5D0B3F896100A05F1D593F9D8
:1043C0009800FFF77BF88742D7D1EAE74146D9E763
:1043D00059683A688F421A6008BF5A6000233B60F0
:1043E000FFF754FF2DB10E9B1BB12A881B889A4200
:1043F00045D1129B3846009AFB62139B0E997B6352
:10440000019BA7F838A087F83A3087F83B903C63C7
:1044100032F01FFC804690BB8DBB97F83C304EB30A
:1044200023F0220376BA43F00803FE8087F83C307D
:10443000149B03B11F6097F83C304FF0FF304FF0F2
:10444000FF3143F0010387F83C30FFF717FF0F4BB4
:104450001A683A605A681F6002B95F60FFF716FF7A
:10446000204631F0D1FE97F83D3060F3000387F825
:104470003D309AE723F02A0387F83C30D8E73846E6
:104480006FF01508FFF708FF8FE700BFC05D02203F
:10449000C85D02201B4B984210B504462CD303F58F
:1044A0002073984228D890F83C30DB0727D54FF08E
:1044B000FF314FF0FF30FFF7E1FE134B00211A6888
:1044C00052B1944215D1226869B959681A608C4278
:1044D00000D15A6000232360FFF7D8FE2046FFF783
:1044E000DBFE002010BD0A605A68944208BF596084
:1044F000F0E711461268E3E76FF01500F2E76FF09E
:104500000100EFE7D05D0220C05D0220F8B5184E33
:1045100004461F46BDF81850B04202D26FF0150095
:10452000F8BD06F52076B042F8D890F83C30DB07AD
:104530001BD5C16242630799BDF8202032F089FB88
:104540000028EBD1002FE9D194F83C3045B123F09D
:1045500022036DBA43F00803E58084F83C30DFE7BE
:1045600023F02A0384F83C30DAE76FF00100D7E744
:10457000D05D02202DE9F34B90F832300546894694
:104580009046C3F30213032B50D14FF0FF304FF08E
:10459000FF31FFF773FE274B1C6824B902B0BDE85A
:1045A000F04BFFF773BE2946206B32F07BFB60B304
:1045B00094F83B30032B28D194F83A30434524D16A
:1045C000238F13B34B4504D0032B02D0B8F1030F54
:1045D0001BD194F83C305B070FD42846D5E903B7CC
:1045E00032F0ACF94FF47A720023284632F0E1FA47
:1045F000064660B9C5E903B707E0E669002EECD0CE
:10460000A869FFF70DF88642E7D02468C5E7636B19
:104610000146204600930023D4F82CC01A46E047F8
:104620000228E7D1304632F024F9E3E702B0BDE8D2
:10463000F08B00BFC05D02200A4A002310B5C2E91A
:104640000033094A184611461446013340320860C7
:104650000A2B02D008461146F7E7044B044AC3E987
:10466000002410BDC05D0220D05D0220C85D022084
:104670001060022007498B4208BF022A08B507D103
:1046800005482DF035FD0548BDE808402DF0D0BCAB
:1046900008BD00BF000010D0880E0220B80E022016
:1046A0002DE9F84F0A2690461F46054693FBF6F67D
:1046B00020B9FEF729FF054600287CD003212846B3
:1046C00032F015FB18B16FF07200BDE8F88F002FC3
:1046D0003FDB41D13C463A4902223A4B08464B6007
:1046E000394BC1E90223FFF7E3F90021284632F0F4
:1046F000FEFA98B30821284632F0F9FA70B3304830
:10470000FFF7FEF931482DF0F3FC31482DF090FC15
:10471000002F01DD002CD6DB26EAE6760A23DFF83F
:10472000B4A0A6FB0365BFF35B8FDAF80030BFF3DC
:104730005B8F38EA030304D0002C04F1FF3933DC2B
:104740004C4601343AD1002FCCBF6FF073000020EB
:10475000BBE74FF0FF34BEE70A24BCE74FF0FF325F
:1047600001211A4847F026FB26EAE6730A22DFF801
:104770005CB0A3FB0259002C04F1FF3A02DDDBF828
:10478000083023B90E485446FFF7BAF9C0E710487D
:104790002A464B462DF086FC08B95446EBE7DBF879
:1047A0000830002BF9D1EDE7094832462B464C463C
:1047B0002DF078FCB7E76FF0010086E7002084E772
:1047C0001851022075460008000010D0880E022003
:1047D000B80E022050600220002313B50C4601934E
:1047E00068B901A90948FEF731FF019828B147F2DD
:1047F000305300222146FFF753FF02B010BDFEF7F1
:104800006FFE01900028F0D1EBE700BF076D0308B1
:104810000349002008B5FFF7DFFF002008BD00BFF7
:10482000E6EC040807B5084A92E80300CDE9000168
:1048300006488268126822B16946904703B05DF865
:1048400004FB6FF05700F9E7A4DA040834D4040835
:104850001F2809D8012303FA00F0044B5B69984331
:104860000CBF01200020704700207047003C014031
:1048700000F01F0201231F2803FA02F303D8034AA2
:104880000020536170476FF015007047003C0140F5
:10489000044B18440023013300F8012B8B42FADB50
:1048A000704700BF0C0D02202DE9F041054600269F
:1048B0000F4F4FF00108F4B26B78A34201D8BDE866
:1048C000F0812B781C442046FFF7C2FF68B12046D8
:1048D000FFF7CEFF57F834303BB107EBC40204F0CA
:1048E0001F04516808FA04F098470136E3E700BF57
:1048F00054600220034660B1B0FA80F2C2F11F0298
:10490000D2B205498856054A11680B431360FCF77B
:1049100043BBFF22F5E700BF0C0D0220003C014025
:10492000024A136823EA000313607047003C014009
:10493000032921D8DFE801F0020C10190F4B9A6807
:1049400022EA00029A60DA6822EA0002DA6070471E
:104950000A4B9A680243F5E7084BDA680243DA60CB
:104960009A6822EA00029A607047044B9A680243F0
:104970009A60DA681043D860704700BF003C01407D
:1049800030B5B0B1B0FA80F3C3F11F03DBB20B480E
:1049900050F833408C4204D100EBC3056D6895425A
:1049A00005D044B940F8331000EBC300426000204A
:1049B00030BDFF23EBE76FF00F00F9E754600220F2
:1049C00060B1B0FA80F3C3F11F03DBB2044A0021E7
:1049D00042F8331002EBC30251607047FF23F5E742
:1049E0005460022000F003020F230432920093402F
:1049F000074A43EA9000C3B2023352F82320030C63
:104A000093FAA3F302EA1040B3FA83F3D840704755
:104A10000038014038B52A4B14460D4618680B88FB
:104A20008208C3F30B03142B17D8EBB1013B132BF4
:104A30001AD8DFE803F00B0A0A0A3C242E191919C8
:104A400019191919191919223A0B002020602B681D
:104A5000B3F5805F2DD2002038BD382BF6D006D8B4
:104A600023F00403302BF1D06FF08500F4E7442BE2
:104A70000DD0A82BEAD0402BF6D11046E6E700F087
:104A8000CBF81923B0FBF3F04FF4D8735843400828
:104A9000DCE700F0C1F81923B0FBF3F04FF4D87352
:104AA00058430923B0FBF3F0D0E75000CEE70548A8
:104AB000CCE7C3F313330133B0FBF3F02060CAE754
:104AC000B00C022040787D01142808D8054BC34063
:104AD00013F0010F0CBF6FF08500002070476FF0DE
:104AE00085007047E2001C0070B5464C00F0C8F825
:104AF000454D204632F0F3F92CF03AFBAB68434ABF
:104B0000C3F30313D35C20FA03F613781C41A642C7
:104B100002D220462CF0C6FE2B6823F480232B60A3
:104B20002B6843F480332B60374B1A689203FCD513
:104B30009A6802F00C02082A17D11A68950707D460
:104B40001A6842F001021A602F4A13689807FCD5D0
:104B50002D4B9A6822F003029A609A6812F00C0FAB
:104B6000FBD19A6822F0F0029A60274D2B6823F05F
:104B700080732B602B689901FCD4254AD2F8043845
:104B800023F44033C2F80438D2F8043823F07063B9
:104B900043F01063C2F8043800F042F82B6843F089
:104BA00080732B60184B1A689201FCD59A6822F02A
:104BB000F0029A609A6822F0030242F002029A60C0
:104BC0009A6802F00C02082AFAD1A64202D32046C3
:104BD0002CF068FE0F4B00200A4A1A600A4B9A68B4
:104BE00022F4E05242F4A0529A609A6822F46042A1
:104BF00042F400429A60D3F88C2022F08072C3F80D
:104C00008C2070BD00E6DF0C00380240BD5D050859
:104C100000300240B00C02200048704740787D010F
:104C2000114B12495A681140114A0A4311495A60FE
:104C30005A681140104A0A435A601A6842F080725A
:104C40001A60A3F5E4331A6842F480321A605A6895
:104C5000D203FCD51A6842F400321A60074A53683E
:104C60009B03FCD5704700BF003802400080BCFFAA
:104C7000196C40000080BFF0196C400900700040C2
:104C8000064B82B01A6C42F080521A641B6C03F01F
:104C900080530193019B02B0704700BF003802406F
:104CA00008B5074846F0E1FE38B10648FCF700FCBD
:104CB0000448FBF729FE002008BD6FF01200FBE757
:104CC000D8D50408C94C00080A2838B50446074D51
:104CD00004D1AB680D2128465B689847AB68E1B208
:104CE00002485B689847204638BD00BFD8D5040805
:104CF00037B5456804691348291D83681B68EBB103
:104D00009847002818DB01AA0021286832F019FD15
:104D1000002811DB019B00221979186832F023FD6D
:104D2000002809DB04F118002CF05AFD012220466E
:104D3000114647F03FF8002003B030BD6FF0570038
:104D4000FAE700BF34D40408014B1868704700BF6D
:104D500044090220F0B5044689B0002841D0036818
:104D6000002B3ED01E68062203233569776829464A
:104D700041F8040B31F052F82046FEF7C7F905F16F
:104D80000C0032F05FF92046174C31F099F820689A
:104D900046F06BFE30B1206883689B6813B13246E1
:104DA000124998473B6805F5E864984700220023BC
:104DB00005F5807120460096CDE9062300236FF0AB
:104DC0000D02CDE90133CDE90323094B4FF4C06255
:104DD0002DF010FC0749204609B0BDE8F04047F02F
:104DE0008DB800231B69FFDE44090220616F0308B0
:104DF000B36F03082BED04082DE9FF410646056952
:104E000044680027DFF8CC80237ABB422DD801AA62
:104E10000021E06832F095FC002832DB019B002283
:104E20001979186832F09FFC00282ADB237C2F1D9B
:104E3000002B36D148F20203AB80E123AB710C2189
:104E400001A800F09BFA0C2101A830F026FC00908C
:104E5000BDF800209DF80230A5F807206B7230469F
:104E60002F6100F06DF960B109E0627A6168BA42C1
:104E7000D8F8083001EBC7010DD19B6923B96FF059
:104E8000040004B0BDE8F0810022404698470028A5
:104E9000F5D10137B8E71B68002BF0D040469847A2
:104EA000F5E7E27D04F11101384647F07EFF237CEF
:104EB000012B0CD1E07DC0F106013844FCF75AFD0E
:104EC0002B7923F0010343F002032B71C7E7032B77
:104ED000C5D0AFE734D4040808B5094B00201A4602
:104EE000197B31B1013010330428F9D12DF07CFD4C
:104EF000F3E702EB0012012380B2137308BD00BF79
:104F00001061022000230C4A10B512F83310DC00A7
:104F100069B90A4A42F83310224491800121917103
:104F20004FF4BF61064A01FB0323036010BD013348
:104F3000042BEAD10023F8E75661022050610220D9
:104F40002019002010B5084C121B084CD2106243E7
:104F5000074C04EBC2029380036813B902600A6035
:104F600010BD0B681A60FAE7201900203F6F93EE1E
:104F7000506102208288054B03EB021300221A7352
:104F80009B68002BFBD18371704700BF106102202A
:104F90002DE9F74F0C4605698B684FF00008002B90
:104FA0005DD1B8F5BF5F54D8404E0023DA000192BE
:104FB00016F83320002A56D1DA003D4F3D4EC14647
:104FC00007EB020A012247F833408AF80620FFF770
:104FD00083FF06EB001BAAF80400B9F5BF6FDBF8EE
:104FE000001046D84A46204631F002FD002854D130
:104FF000019B05F10C04D4351F44BB88CBE901901B
:1050000006EB0316DFF8B090C9F80480C9F834A0A5
:10501000C9F8086028462DF06BF84946204646F04E
:1050200018FB00283FD1C822284600232DF03AF86B
:10503000054650B120466FF0040546F0EAFC2046D4
:1050400046F0EAFC204646F0EAFC204646F0A6FB85
:1050500008B16FF00405284603B0BDE8F08F1A8A46
:105060005B6890449BE70133042B9FD12DF0BCFC7F
:105070009BE74FF4BF62204631F0BAFC68B9FFF7F6
:105080002BFF4FF4BF6306EB0010A9F5BF69CBF807
:105090000430CBF8080083469FE76FF06805504660
:1050A000FFF768FFD7E76FF00405F8E7F660022026
:1050B000F060022010610220706102202DE9FF41A2
:1050C0000569002403A905F10C00039446F0F2FAE7
:1050D000014618BB039B2BBB28684FF47A7400254C
:1050E0001A46CDE90045FFF763F8044690B1039DE9
:1050F0004FF4BF67104EDFF8448065B1A91BAA8842
:105100002046C91007FB018131F076FD70B12046C1
:1051100031F0AFFB0024039B00224BB9204604B0C2
:10512000BDE8F0819A881B681144D4E72D68E4E754
:105130009A711B68F1E700BF50610220201900201E
:1051400070B51A4B0569AB6105F10C06184B30467A
:10515000EB614FF4BF632B622CF0C4F9044610BB23
:1051600030462CF03DFB4FF0FF32214605F1BC00EC
:1051700046F020FE0122214605F1D40046F01AFE39
:105180000C4B212220461A600B4AC3E904440B4B06
:1051900003F5BF61136003F53F631161136203F50B
:1051A000BF63136370BD6FF01500FBE700000020C4
:1051B000A000002070610220106102204001002048
:1051C000F0B500234768056985B004466B737978AC
:1051D00009BB4FF40042406832F06FF8002808DA4B
:1051E0006FF0040003E0013E04D16FF0730005B0DE
:1051F000F0BD0C2600214FF4FA7046F01CFF0DF1B3
:105200000E020021606832F06DF80028E8DBBDF97D
:105210000E30002BE7DB0DF10E020221606832F048
:1052200061F80028636810DB0DF10E0203211846B7
:10523000BDF80E6032F056F800284FEA064604DB4F
:10524000BDF80E30334301333DD003AA012160681D
:1052500032F048F80028C3DBBDF80C30DB050CD574
:105260000DF10E020F21606832F03CF80028B7DB28
:10527000BDF80E3003F440531BBB002305F1280694
:10528000124985F85830304646F015FE0022B978AC
:10529000204631F032FF78300CD1012349F64042EC
:1052A000684685F85930002346F081FFDDE9002388
:1052B000C5E918230022002330462DF0BDF8002058
:1052C00095E70123DAE76FF0150090E7777403089C
:1052D0002DE9F843D0F80490904607460D46D9F8DA
:1052E00008001E4631F063FDB8F5001F044616D1D4
:1052F000D9F808402846FFF775FB84420CD12946AF
:1053000031F055FD0446FFF70BFB2046FFF758FB35
:1053100000212046FFF70CFB0020BDE8F883B8F51C
:10532000800F20D0B6F1806F19D0B6F1C06F18D0C1
:10533000B6F1007F1AD102263A460F492046FFF700
:105340001FFBB0B9D9F80810284631F035FD2046CA
:105350003146FFF7EDFA2046FFF7CCFADCE70126ED
:10536000EAE70326E8E76FF08500D6E76FF015005F
:10537000D3E76FF00F00D0E7177703081FB50C4B8A
:105380000C29D3F8282428BF0C2112BA0C4601920C
:10539000D3F8242412BA02920A46D3F8203401A981
:1053A0001BBA039347F001FD204604B010BD00BFB7
:1053B00000F0F01FF8B50C46036941681D682379B9
:1053C000012B18D0A3F1020EDEF1000646EB0E060B
:1053D000B6026279022A96BF474F4FF4005737F85A
:1053E0001270A279022A09D0042A30D0003B18BFDB
:1053F00001231B0306E04FF4C066EAE7B3FA83F328
:105400005B091B07E2790968012A0CBF4FF4407C55
:105410004FF0000CA5421DD10A6822F0805222F400
:10542000B05232431A430A604B6823F440533B4363
:105430004B6043681A68936823F4407343EA0C0393
:10544000936029684068BDE8F84032F047BA4FF4ED
:105450008053D7E7D1F800E00EF4C06E764506D051
:10546000D1F800E02EF4C06E4EEA06060E604168E8
:105470000E68716801F440518F4204D0716821F4C4
:1054800040513943716041680E68316801F0102164
:105490008B4204D0316821F010210B433360436804
:1054A00019688B6803F440739C4505D08B6823F41E
:1054B000407343EA0C038B604368D71E1B687E422F
:1054C00099687E41C1F380318E4207D0032A9A68E1
:1054D0000CBF42F4804222F480429A6021682B681B
:1054E000994206D0406832F0F9F908B923682B6078
:1054F000F8BD0020FCE700BF14E50408F7B54468D8
:1055000006466068216983681B68002B00F095805F
:105510009847002830DB01AA0021606A32F011F9B7
:10552000002829DB019B00221979186832F01BF949
:10553000002821DB756833692C681F68236823F015
:1055400001032360A86846F090FA002878D0D5E9D6
:1055500002018368DB6803B1984754E8003F43F0D9
:105560000C0344E80032002AF7D139463046FFF7F1
:1055700021FF18B16FF0150003B0F0BD2B7E1BB1F9
:10558000A36843F00803A3606B7E1BB1636843F418
:1055900000436360AB7E1BB1636843F48033636098
:1055A000EB7E1BB1636843F4003363602B7F002BF9
:1055B00038D0254B9C421BD0A3F54C439C4217D0BE
:1055C00003F580639C4213D003F580639C420FD0A7
:1055D00003F580639C420BD003F544439C4207D003
:1055E000A3F51C439C4203D003F580639C42C1D1C8
:1055F00073681A68936843F48043936023686A7FF2
:1056000023F0787343EA425323602368AA7F23F48C
:10561000F81343EA02432360EB7F1BB1A36843F412
:105620000043A360236843F001032360E3699A0207
:10563000FCD5E3695B02FCD59EE76FF057009BE762
:105640006FF0120098E700BF001001402DE9F04113
:10565000436802460D461C6803691E680B79012BDE
:1056600017D0981E41424141890295F805E0AF7973
:10567000BEF1020F96BF3A484FF4005C30F81EC0EE
:10568000022F09D0042F01D0002B60D04FF480509E
:1056900005E04FF4C061E8E7002B55D00020A3F1EE
:1056A0000308B8F1010F04D86FF085031846BDE870
:1056B000F0810BB1042FF7D0BCF5805F49D0BCF569
:1056C000405F48D0BCF1000F0CBF012303239E456F
:1056D000EAD132F0C1F88742E6D1EB7903B3012B6E
:1056E0003BD1204B9C421BD0A3F54C439C4217D08E
:1056F00003F580639C4213D003F580639C420FD076
:1057000003F580639C420BD003F544439C4207D0D1
:10571000A3F51C439C4203D003F580639C42C3D194
:1057200023682946104623F001032360FFF742FE59
:1057300003460028B8D1226842F00102226095E8B1
:10574000030086E80300B1E74FF08050B4E7184645
:10575000B2E70023BBE70223B9E7032BC1D0A3E7DD
:1057600014E50408001001404FF0E0230D4A996948
:10577000126818699B69002908BF1146002B08BFF1
:10578000134610F4803F084801D1994205D20168C0
:10579000114401604FF0E021096900681044C01A0B
:1057A000704700BFAC610220A8610220094B1022A3
:1057B000002083F8232045F26042074B1A6045F22F
:1057C0005F42064B18604FF0E0235A610722986150
:1057D0001A61704700ED00E0AC610220A861022070
:1057E000684620F007018D4619B5FFF7BDFF114946
:1057F000114B0868D3E90042001942F10002C3E9E5
:1058000000020E4A00230B6045F26043D2E90041DA
:10581000001BB0FBF3F043431B1941F10001C2E947
:1058200000312DF06BFBFBF755FCBDE819408546B8
:10583000704700BFA8610220305102202851022089
:105840002DE9F041374E89B1421C0AD14FF0E022D8
:10585000136923F0010313614FF07F433360BDE808
:10586000F0813568012806DC00240AE0431C356815
:10587000F8D140F20730B0F5427FA8BF4FF4427034
:10588000441EEFF31187102383F31288BFF36F8F49
:10589000FFF76AFF4FF0E0232349D3F818C0D1E99E
:1058A000002380184FF0000243F10003C1E9000318
:1058B0001E4B1A601E4B1A68831A2DD445F2604E97
:1058C00045F25F4814FB0E841C44131A40F2465202
:1058D000B4FBFEF40EFB0433934238BF1346154A63
:1058E000934228BF13464FF0E0223360013B946996
:1058F00053610023A445ACEB04009361D1E900326D
:105900000DD20544EB1842F10002C1E9003287F3E1
:105910001188BFF36F8FA2E740F24653E3E7C31845
:10592000F1E700BFAC61022030510220A8610220E3
:1059300028510220A06EFF0038B5EFF31185102327
:1059400083F31288BFF36F8F084B1C68084B1B68EA
:10595000E41AFFF709FF85F31188BFF36F8F45F253
:1059600060432044B0FBF3F038BD00BF305102204B
:105970002851022038B5EFF31185102383F31288E4
:10598000BFF36F8F044B1C68FFF7EEFE85F31188A1
:10599000BFF36F8F204438BD30510220024B1B688B
:1059A00003B11847704700BFE8630220EFF311818D
:1059B000102383F31288BFF36F8F044B1A680AB960
:1059C000034A11601A6801321A607047EC630220C2
:1059D000F0630220074B1A68002A0ADD1A68013AB0
:1059E0001A601B682BB9044B1B6883F31188BFF343
:1059F0006F8F7047EC630220F0630220014B186048
:105A0000704700BFE863022007B598B132236422D3
:105A10000021584300236330FAF782FC02460B460C
:105A200000210020CDE9000104482DF05FFB03B008
:105A30005DF804FB00221346F2E700BF700D022060
:105A400008B5054846F091FB6423584332233130B2
:105A5000B0FBF3F080B208BD700D022001482CF0BD
:105A6000E7BA00BFA00E0220F8B5184CFFF79EFF62
:105A7000074694F8185145B194F8343223B1002404
:105A8000FFF7A8FF2046F8BD01254FF48E760123CD
:105A900006FB05466D4205F48E7586F81831FFF752
:105AA00099FF2C44204646F0DBFC802239462046F4
:105AB0002DF024FD0028E5D0204646F0D6FCFFF767
:105AC00075FF002386F81831D9E700BFB0610220C6
:105AD00008B54FF0FF324FF0FF3308482CF0B4F90F
